{
  "contractName": "EventManager",
  "abi": [
    {
      "inputs": [
        {
          "internalType": "address",
          "name": "_ticketNFT",
          "type": "address"
        }
      ],
      "stateMutability": "nonpayable",
      "type": "constructor"
    },
    {
      "anonymous": false,
      "inputs": [
        {
          "indexed": true,
          "internalType": "address",
          "name": "previousOwner",
          "type": "address"
        },
        {
          "indexed": true,
          "internalType": "address",
          "name": "newOwner",
          "type": "address"
        }
      ],
      "name": "OwnershipTransferred",
      "type": "event"
    },
    {
      "inputs": [
        {
          "internalType": "uint256",
          "name": "",
          "type": "uint256"
        }
      ],
      "name": "allEvents",
      "outputs": [
        {
          "internalType": "uint256",
          "name": "",
          "type": "uint256"
        }
      ],
      "stateMutability": "view",
      "type": "function",
      "constant": true
    },
    {
      "inputs": [
        {
          "internalType": "uint256",
          "name": "",
          "type": "uint256"
        },
        {
          "internalType": "uint256",
          "name": "",
          "type": "uint256"
        }
      ],
      "name": "eventTickets",
      "outputs": [
        {
          "internalType": "uint256",
          "name": "",
          "type": "uint256"
        }
      ],
      "stateMutability": "view",
      "type": "function",
      "constant": true
    },
    {
      "inputs": [
        {
          "internalType": "uint256",
          "name": "",
          "type": "uint256"
        }
      ],
      "name": "events",
      "outputs": [
        {
          "internalType": "uint256",
          "name": "id",
          "type": "uint256"
        },
        {
          "internalType": "address",
          "name": "organizer",
          "type": "address"
        },
        {
          "internalType": "string",
          "name": "title",
          "type": "string"
        },
        {
          "internalType": "string",
          "name": "date",
          "type": "string"
        },
        {
          "internalType": "string",
          "name": "venue",
          "type": "string"
        },
        {
          "internalType": "string",
          "name": "description",
          "type": "string"
        },
        {
          "internalType": "string",
          "name": "category",
          "type": "string"
        },
        {
          "internalType": "string",
          "name": "image",
          "type": "string"
        },
        {
          "internalType": "uint256",
          "name": "ticketPrice",
          "type": "uint256"
        },
        {
          "internalType": "uint256",
          "name": "totalTickets",
          "type": "uint256"
        },
        {
          "internalType": "uint256",
          "name": "ticketsSold",
          "type": "uint256"
        },
        {
          "internalType": "bool",
          "name": "published",
          "type": "bool"
        },
        {
          "internalType": "bool",
          "name": "ended",
          "type": "bool"
        }
      ],
      "stateMutability": "view",
      "type": "function",
      "constant": true
    },
    {
      "inputs": [],
      "name": "nextEventId",
      "outputs": [
        {
          "internalType": "uint256",
          "name": "",
          "type": "uint256"
        }
      ],
      "stateMutability": "view",
      "type": "function",
      "constant": true
    },
    {
      "inputs": [
        {
          "internalType": "address",
          "name": "",
          "type": "address"
        },
        {
          "internalType": "uint256",
          "name": "",
          "type": "uint256"
        }
      ],
      "name": "organizerEvents",
      "outputs": [
        {
          "internalType": "uint256",
          "name": "",
          "type": "uint256"
        }
      ],
      "stateMutability": "view",
      "type": "function",
      "constant": true
    },
    {
      "inputs": [],
      "name": "owner",
      "outputs": [
        {
          "internalType": "address",
          "name": "",
          "type": "address"
        }
      ],
      "stateMutability": "view",
      "type": "function",
      "constant": true
    },
    {
      "inputs": [],
      "name": "renounceOwnership",
      "outputs": [],
      "stateMutability": "nonpayable",
      "type": "function"
    },
    {
      "inputs": [],
      "name": "ticketNFT",
      "outputs": [
        {
          "internalType": "contract TicketNFT",
          "name": "",
          "type": "address"
        }
      ],
      "stateMutability": "view",
      "type": "function",
      "constant": true
    },
    {
      "inputs": [
        {
          "internalType": "uint256",
          "name": "",
          "type": "uint256"
        }
      ],
      "name": "ticketToEvent",
      "outputs": [
        {
          "internalType": "uint256",
          "name": "",
          "type": "uint256"
        }
      ],
      "stateMutability": "view",
      "type": "function",
      "constant": true
    },
    {
      "inputs": [
        {
          "internalType": "address",
          "name": "newOwner",
          "type": "address"
        }
      ],
      "name": "transferOwnership",
      "outputs": [],
      "stateMutability": "nonpayable",
      "type": "function"
    },
    {
      "inputs": [
        {
          "internalType": "string",
          "name": "title",
          "type": "string"
        },
        {
          "internalType": "string",
          "name": "date",
          "type": "string"
        },
        {
          "internalType": "string",
          "name": "venue",
          "type": "string"
        },
        {
          "internalType": "string",
          "name": "description",
          "type": "string"
        },
        {
          "internalType": "string",
          "name": "category",
          "type": "string"
        },
        {
          "internalType": "string",
          "name": "image",
          "type": "string"
        },
        {
          "internalType": "uint256",
          "name": "ticketPrice",
          "type": "uint256"
        },
        {
          "internalType": "uint256",
          "name": "totalTickets",
          "type": "uint256"
        }
      ],
      "name": "createEvent",
      "outputs": [],
      "stateMutability": "nonpayable",
      "type": "function"
    },
    {
      "inputs": [
        {
          "internalType": "uint256",
          "name": "eventId",
          "type": "uint256"
        },
        {
          "internalType": "string",
          "name": "tokenURI",
          "type": "string"
        }
      ],
      "name": "buyTicket",
      "outputs": [],
      "stateMutability": "payable",
      "type": "function",
      "payable": true
    },
    {
      "inputs": [
        {
          "internalType": "address",
          "name": "organizer",
          "type": "address"
        }
      ],
      "name": "getOrganizerEvents",
      "outputs": [
        {
          "internalType": "uint256[]",
          "name": "",
          "type": "uint256[]"
        }
      ],
      "stateMutability": "view",
      "type": "function",
      "constant": true
    },
    {
      "inputs": [],
      "name": "getAllEvents",
      "outputs": [
        {
          "internalType": "uint256[]",
          "name": "",
          "type": "uint256[]"
        }
      ],
      "stateMutability": "view",
      "type": "function",
      "constant": true
    },
    {
      "inputs": [
        {
          "internalType": "uint256",
          "name": "eventId",
          "type": "uint256"
        }
      ],
      "name": "getEvent",
      "outputs": [
        {
          "components": [
            {
              "internalType": "uint256",
              "name": "id",
              "type": "uint256"
            },
            {
              "internalType": "address",
              "name": "organizer",
              "type": "address"
            },
            {
              "internalType": "string",
              "name": "title",
              "type": "string"
            },
            {
              "internalType": "string",
              "name": "date",
              "type": "string"
            },
            {
              "internalType": "string",
              "name": "venue",
              "type": "string"
            },
            {
              "internalType": "string",
              "name": "description",
              "type": "string"
            },
            {
              "internalType": "string",
              "name": "category",
              "type": "string"
            },
            {
              "internalType": "string",
              "name": "image",
              "type": "string"
            },
            {
              "internalType": "uint256",
              "name": "ticketPrice",
              "type": "uint256"
            },
            {
              "internalType": "uint256",
              "name": "totalTickets",
              "type": "uint256"
            },
            {
              "internalType": "uint256",
              "name": "ticketsSold",
              "type": "uint256"
            },
            {
              "internalType": "bool",
              "name": "published",
              "type": "bool"
            },
            {
              "internalType": "bool",
              "name": "ended",
              "type": "bool"
            }
          ],
          "internalType": "struct EventManager.Event",
          "name": "",
          "type": "tuple"
        }
      ],
      "stateMutability": "view",
      "type": "function",
      "constant": true
    },
    {
      "inputs": [],
      "name": "withdraw",
      "outputs": [],
      "stateMutability": "nonpayable",
      "type": "function"
    },
    {
      "inputs": [
        {
          "internalType": "uint256",
          "name": "eventId",
          "type": "uint256"
        }
      ],
      "name": "endEvent",
      "outputs": [],
      "stateMutability": "nonpayable",
      "type": "function"
    }
  ],
  "bytecode": "0x6080346100a857601f61172738819003918201601f19168301916001600160401b038311848410176100ac578084926020946040528339810103126100a857516001600160a01b0390818116908190036100a8575f5460018060a01b03199033828216175f55604051933391167f8be0079c531659141344cd1fd0a4f28419497f9722a3daafe3b4186f6b6457e05f80a360018055600254161760025561166690816100c18239f35b5f80fd5b634e487b7160e01b5f52604160045260245ffdfe60806040526004361015610011575f80fd5b5f3560e01c80630b7914301461126c578063330a347b146112315780633bec5cff146111e15780633ccfd60b1461119c5780636d1884e014610f5c578063715018a614610f05578063779cea7714610ece5780638da5cb5b14610ea75780639afb93cb14610ccc5780639f1e7ca61461035f5780639f9d903a14610342578063b393391b1461031a578063c27a500d146102a2578063e4aa47e31461024b578063f2fde38b14610185578063f6ac04da1461015b5763ff9f5970146100d4575f80fd5b3461015757602080600319360112610157576001600160a01b036100f66115a1565b165f526006815260405f209060405190818184549182815201935f52815f20915f905b8282106101405761013c85610130818903826113fd565b60405191829182611567565b0390f35b835486529485019460019384019390910190610119565b5f80fd5b34610157576020366003190112610157576004355f526008602052602060405f2054604051908152f35b346101575760203660031901126101575761019e6115a1565b6101a66115b7565b6001600160a01b039081169081156101f7575f54826bffffffffffffffffffffffff60a01b8216175f55167f8be0079c531659141344cd1fd0a4f28419497f9722a3daafe3b4186f6b6457e05f80a3005b60405162461bcd60e51b815260206004820152602660248201527f4f776e61626c653a206e6577206f776e657220697320746865207a65726f206160448201526564647265737360d01b6064820152608490fd5b34610157576040366003190112610157576102646115a1565b6001600160a01b03165f9081526006602052604090208054602435919082101561015757602091610294916114fd565b90546040519160031b1c8152f35b34610157575f36600319011261015757604051806005549182815260208091019260055f527f036b6384b5eca791c62761152d0c79bb0604c104a5fb6f4eb0703f3154bb3db0915f905b8282106103035761013c85610130818903826113fd565b8354865294850194600193840193909101906102ec565b34610157575f366003190112610157576002546040516001600160a01b039091168152602090f35b34610157575f366003190112610157576020600354604051908152f35b3461015757610100366003190112610157576004356001600160401b03811161015757610390903690600401611512565b6024356001600160401b038111610157576103af903690600401611512565b906044356001600160401b038111610157576103cf903690600401611512565b6064356001600160401b038111610157576103ee903690600401611512565b6084356001600160401b0381116101575761040d903690600401611512565b9060a4356001600160401b0381116101575761042d903690600401611512565b9260c43515610c9a5760e43515610c68576003549561044b8761160e565b6003556040519561045b876113e1565b87875233602088015260408701526060860152608085015260a084015260c083015260e082015260c43561010082015260e4356101208201525f61014082015260016101608201525f610180820152815f52600460205260405f20815181556001810160018060a01b036020840151166bffffffffffffffffffffffff60a01b82541617905560408201519283516001600160401b0381116107f45761050460028401546113a9565b601f8111610c24575b506020601f8211600114610bb95781929394955f92610bae575b50508160011b915f199060031b1c19161760028301555b60608301519283516001600160401b0381116107f45761056160038501546113a9565b601f8111610b6a575b506020601f8211600114610aff5781929394955f92610af4575b50508160011b915f199060031b1c19161760038401555b60808101519283516001600160401b0381116107f4576105be60048301546113a9565b601f8111610ab0575b506020601f8211600114610a455781929394955f92610a3a575b50508160011b915f199060031b1c19161760048201555b60a08201519283516001600160401b0381116107f45761061b60058401546113a9565b601f81116109f6575b506020601f821160011461098b5781929394955f92610980575b50508160011b915f199060031b1c19161760058301555b60c08301519283516001600160401b0381116107f45761067860068501546113a9565b601f811161093c575b506020601f82116001146108d15781929394955f926108c6575b50508160011b915f199060031b1c19161760068401555b60e08101519283516001600160401b0381116107f4576106d560078301546113a9565b601f8111610882575b506020601f8211600114610813578190600b9495965f92610808575b50508160011b915f199060031b1c19161760078201555b61010083015160088201556101208301516009820155610140830151600a820155019061016081015115159060ff61ff006101808554930151151560081b1692169061ffff191617179055335f52600660205260405f208054906801000000000000000091828110156107f45761078d916001820181556114fd565b81549060031b9084821b915f19901b1916179055600554908110156107f45760018101806005558110156107e0577f036b6384b5eca791c62761152d0c79bb0604c104a5fb6f4eb0703f3154bb3db00155005b634e487b7160e01b5f52603260045260245ffd5b634e487b7160e01b5f52604160045260245ffd5b0151905086806106fa565b600783015f5260205f20955f5b601f198416811061086a5750958291600b959697600194601f19811610610852575b505050811b016007820155610711565b01515f1960f88460031b161c19169055868080610842565b82820151885560019097019660209283019201610820565b600783015f5260205f20601f830160051c8101602084106108bf575b601f830160051c820181106108b45750506106de565b5f815560010161089e565b508061089e565b01519050858061069b565b600685015f5260205f20905f5b601f1984168110610924575060019394959683601f1981161061090c575b505050811b0160068401556106b2565b01515f1960f88460031b161c191690558580806108fc565b9091602060018192858b0151815501930191016108de565b600685015f5260205f20601f830160051c810160208410610979575b601f830160051c8201811061096e575050610681565b5f8155600101610958565b5080610958565b01519050858061063e565b600584015f5260205f20905f5b601f19841681106109de575060019394959683601f198116106109c6575b505050811b016005830155610655565b01515f1960f88460031b161c191690558580806109b6565b9091602060018192858b015181550193019101610998565b600584015f5260205f20601f830160051c810160208410610a33575b601f830160051c82018110610a28575050610624565b5f8155600101610a12565b5080610a12565b0151905085806105e1565b600483015f5260205f20905f5b601f1984168110610a98575060019394959683601f19811610610a80575b505050811b0160048201556105f8565b01515f1960f88460031b161c19169055858080610a70565b9091602060018192858b015181550193019101610a52565b600483015f5260205f20601f830160051c810160208410610aed575b601f830160051c82018110610ae25750506105c7565b5f8155600101610acc565b5080610acc565b015190508580610584565b600385015f5260205f20905f5b601f1984168110610b52575060019394959683601f19811610610b3a575b505050811b01600384015561059b565b01515f1960f88460031b161c19169055858080610b2a565b9091602060018192858b015181550193019101610b0c565b600385015f5260205f20601f830160051c810160208410610ba7575b601f830160051c82018110610b9c57505061056a565b5f8155600101610b86565b5080610b86565b015190508580610527565b600284015f5260205f20905f5b601f1984168110610c0c575060019394959683601f19811610610bf4575b505050811b01600283015561053e565b01515f1960f88460031b161c19169055858080610be4565b9091602060018192858b015181550193019101610bc6565b600284015f5260205f20601f830160051c810160208410610c61575b601f830160051c82018110610c5657505061050d565b5f8155600101610c40565b5080610c40565b60405162461bcd60e51b815260206004820152600a6024820152694e4f5f5449434b45545360b01b6044820152606490fd5b60405162461bcd60e51b815260206004820152600a60248201526950524943455f5a45524f60b01b6044820152606490fd5b604036600319011261015757602480356001600160401b03811161015757610cf8903690600401611512565b600260015414610e635760026001556004355f526020906004825260405f209260ff600b85015460081c16610e3257600a840193845460098201541115610e0357600801543403610dd457610d7e91839160405f60018060a01b0360025416928251968795869485936314e2210b60e21b855233600486015284015260448301906114bf565b03925af18015610dc957610da0575b82610d98815461160e565b905560018055005b813d8311610dc2575b610db381836113fd565b81010312610157578180610d8d565b503d610da9565b6040513d5f823e3d90fd5b8260096064926040519262461bcd60e51b84526004840152820152684241445f505249434560b81b6044820152fd5b60405162461bcd60e51b8152600481018590526008818401526714d3d31117d3d55560c21b6044820152606490fd5b82600b6064926040519262461bcd60e51b845260048401528201526a115591539517d15391115160aa1b6044820152fd5b60405162461bcd60e51b815260206004820152601f818401527f5265656e7472616e637947756172643a207265656e7472616e742063616c6c006044820152606490fd5b34610157575f366003190112610157575f546040516001600160a01b039091168152602090f35b34610157576040366003190112610157576024356004355f52600760205260405f20805482101561015757602091610294916114fd565b34610157575f36600319011261015757610f1d6115b7565b5f80546001600160a01b0319811682556001600160a01b03167f8be0079c531659141344cd1fd0a4f28419497f9722a3daafe3b4186f6b6457e08280a3005b34610157576020366003190112610157575f610180604051610f7d816113e1565b8281528260208201526060604082015260608082015260606080820152606060a0820152606060c0820152606060e08201528261010082015282610120820152826101408201528261016082015201526004355f52600460205260405f2060ff600b60405192610fec846113e1565b8054845260018101546001600160a01b0316602085015261100f6002820161141e565b60408501526110206003820161141e565b60608501526110316004820161141e565b60808501526110426005820161141e565b60a08501526110536006820161141e565b60c08501526110646007820161141e565b60e085015260088101546101008501526009810154610120850152600a8101546101408501520154818116151561016084015260081c1615156101808201526040518091602082528051602083015260018060a01b03602082015116604083015261018061115d6110e660408401516101a060608701526101c08601906114bf565b61114761113361111f61110b606088015194601f1995868b83030160808c01526114bf565b6080880151858a83030160a08b01526114bf565b60a0870151848983030160c08a01526114bf565b60c0860151838883030160e08901526114bf565b9060e085015190868303016101008701526114bf565b91610100810151610120850152610120810151610140850152610140810151610160850152610160810151151582850152015115156101a08301520390f35b34610157575f366003190112610157576111b46115b7565b5f805481908190819047906001600160a01b03168282156111d8575bf115610dc957005b506108fc6111d0565b34610157576020366003190112610157576004356005548110156101575760209060055f527f036b6384b5eca791c62761152d0c79bb0604c104a5fb6f4eb0703f3154bb3db00154604051908152f35b346101575760203660031901126101575761124a6115b7565b6004355f526004602052600b60405f200161010061ff00198254161790555f80f35b3461015757602036600319011261015757600480355f90815260209190915260409020805460018201546001600160a01b0316916112ac6002820161141e565b6112b86003830161141e565b916112c56004820161141e565b926112d26005830161141e565b6112de6006840161141e565b6112ea6007850161141e565b91600885015496600986015494600a87015496600b0154976040519b8c9b8c5260208c01526101a08060408d01528b01611323916114bf565b8a810360608c0152611334916114bf565b89810360808b0152611345916114bf565b88810360a08a0152611356916114bf565b87810360c0890152611367916114bf565b86810360e0880152611378916114bf565b9361010086015261012085015261014084015260ff8116151561016084015260081c60ff1615156101808301520390f35b90600182811c921680156113d7575b60208310146113c357565b634e487b7160e01b5f52602260045260245ffd5b91607f16916113b8565b6101a081019081106001600160401b038211176107f457604052565b90601f801991011681019081106001600160401b038211176107f457604052565b9060405191825f825492611431846113a9565b9081845260019485811690815f1461149c575060011461145c575b505061145a925003836113fd565b565b909391505f52602090815f20935f915b81831061148457505061145a93508201015f8061144c565b8554888401850152948501948794509183019161146c565b91505061145a94506020925060ff191682840152151560051b8201015f8061144c565b91908251928382525f5b8481106114e9575050825f602080949584010152601f8019910116010190565b6020818301810151848301820152016114c9565b80548210156107e0575f5260205f2001905f90565b81601f82011215610157578035906001600160401b0382116107f45760405192611546601f8401601f1916602001856113fd565b8284526020838301011161015757815f926020809301838601378301015290565b602090816040818301928281528551809452019301915f5b82811061158d575050505090565b83518552938101939281019260010161157f565b600435906001600160a01b038216820361015757565b5f546001600160a01b031633036115ca57565b606460405162461bcd60e51b815260206004820152602060248201527f4f776e61626c653a2063616c6c6572206973206e6f7420746865206f776e65726044820152fd5b5f19811461161c5760010190565b634e487b7160e01b5f52601160045260245ffdfea264697066735822122000335e8d2954fe85e838edfe6faf5e935471511e0db2bde8252f60fed1b7d00564736f6c63430008140033",
  "immutableReferences": {},
  "source": "// SPDX-License-Identifier: MIT\npragma solidity ^0.8.20;\n\nimport \"@openzeppelin/contracts/access/Ownable.sol\";\nimport \"@openzeppelin/contracts/security/ReentrancyGuard.sol\";\nimport \"./TicketNFT.sol\";\n\ncontract EventManager is Ownable, ReentrancyGuard {\n    TicketNFT public ticketNFT;\n    uint256 public nextEventId;\n\n    struct Event {\n        uint256 id;\n        address organizer;\n        string title;\n        string date;\n        string venue;\n        string description;\n        string category;\n        string image;\n        uint256 ticketPrice;\n        uint256 totalTickets;\n        uint256 ticketsSold;\n        bool published;\n        bool ended;\n    }\n\n    mapping(uint256 => Event) public events;\n\n    uint256[] public allEvents;\n    mapping(address => uint256[]) public organizerEvents;\n\n    mapping(uint256 => uint256[]) public eventTickets; // ticket IDs per event\n    mapping(uint256 => uint256) public ticketToEvent; // tokenId => eventId\n\n    constructor(address _ticketNFT) {\n        ticketNFT = TicketNFT(_ticketNFT);\n    }\n\n    // ------------------------\n    // Create Event\n    // ------------------------\n    function createEvent(\n        string memory title,\n        string memory date,\n        string memory venue,\n        string memory description,\n        string memory category,\n        string memory image,\n        uint256 ticketPrice,\n        uint256 totalTickets\n    ) external {\n        require(ticketPrice > 0, \"PRICE_ZERO\");\n        require(totalTickets > 0, \"NO_TICKETS\");\n\n        uint256 eventId = nextEventId++;\n\n        events[eventId] = Event({\n            id: eventId,\n            organizer: msg.sender,\n            title: title,\n            date: date,\n            venue: venue,\n            description: description,\n            category: category,\n            image: image,\n            ticketPrice: ticketPrice,\n            totalTickets: totalTickets,\n            ticketsSold: 0,\n            published: true,\n            ended: false\n        });\n\n        organizerEvents[msg.sender].push(eventId);\n        allEvents.push(eventId);\n    }\n\n    // ------------------------\n    // Buy Ticket\n    // ------------------------\n    function buyTicket(\n        uint256 eventId,\n        string memory tokenURI\n    ) external payable nonReentrant {\n        Event storage e = events[eventId];\n\n        require(!e.ended, \"EVENT_ENDED\");\n        require(e.ticketsSold < e.totalTickets, \"SOLD_OUT\");\n        require(msg.value == e.ticketPrice, \"BAD_PRICE\");\n\n        // Mint NFT directly to buyer\n        ticketNFT.mintTicket(msg.sender, tokenURI);\n\n        e.ticketsSold++;\n    }\n\n    function getOrganizerEvents(\n        address organizer\n    ) external view returns (uint256[] memory) {\n        return organizerEvents[organizer];\n    }\n    function getAllEvents() external view returns (uint256[] memory) {\n        return allEvents;\n    }\n\n    function getEvent(uint256 eventId) external view returns (Event memory) {\n        return events[eventId];\n    }\n\n    // ------------------------\n    // Admin Functions\n    // ------------------------\n    function withdraw() external onlyOwner {\n        payable(owner()).transfer(address(this).balance);\n    }\n\n    function endEvent(uint256 eventId) external onlyOwner {\n        events[eventId].ended = true;\n    }\n}\n",
  "sourcePath": "/Users/thilan/web-dev/prestiqx/smart-contract/contracts/EventManager.sol",
  "compiler": {
    "name": "solc",
    "version": "0.8.20+commit.a1b79de6.Emscripten.clang"
  },
  "schemaVersion": "3.4.16",
  "updatedAt": "2026-01-15T14:34:07.130Z",
  "networkType": "ethereum",
  "devdoc": {
    "kind": "dev",
    "methods": {
      "owner()": {
        "details": "Returns the address of the current owner."
      },
      "renounceOwnership()": {
        "details": "Leaves the contract without owner. It will not be possible to call `onlyOwner` functions. Can only be called by the current owner. NOTE: Renouncing ownership will leave the contract without an owner, thereby disabling any functionality that is only available to the owner."
      },
      "transferOwnership(address)": {
        "details": "Transfers ownership of the contract to a new account (`newOwner`). Can only be called by the current owner."
      }
    },
    "version": 1
  },
  "userdoc": {
    "kind": "user",
    "methods": {},
    "version": 1
  }
}