{
  "contractName": "EventManager",
  "abi": [
    {
      "inputs": [
        {
          "internalType": "address",
          "name": "_ticketNFT",
          "type": "address"
        }
      ],
      "stateMutability": "nonpayable",
      "type": "constructor"
    },
    {
      "anonymous": false,
      "inputs": [
        {
          "indexed": true,
          "internalType": "address",
          "name": "previousOwner",
          "type": "address"
        },
        {
          "indexed": true,
          "internalType": "address",
          "name": "newOwner",
          "type": "address"
        }
      ],
      "name": "OwnershipTransferred",
      "type": "event"
    },
    {
      "inputs": [
        {
          "internalType": "uint256",
          "name": "",
          "type": "uint256"
        },
        {
          "internalType": "uint256",
          "name": "",
          "type": "uint256"
        }
      ],
      "name": "eventTickets",
      "outputs": [
        {
          "internalType": "uint256",
          "name": "",
          "type": "uint256"
        }
      ],
      "stateMutability": "view",
      "type": "function"
    },
    {
      "inputs": [
        {
          "internalType": "uint256",
          "name": "",
          "type": "uint256"
        }
      ],
      "name": "events",
      "outputs": [
        {
          "internalType": "uint256",
          "name": "id",
          "type": "uint256"
        },
        {
          "internalType": "address",
          "name": "organizer",
          "type": "address"
        },
        {
          "internalType": "string",
          "name": "title",
          "type": "string"
        },
        {
          "internalType": "string",
          "name": "date",
          "type": "string"
        },
        {
          "internalType": "string",
          "name": "venue",
          "type": "string"
        },
        {
          "internalType": "string",
          "name": "description",
          "type": "string"
        },
        {
          "internalType": "string",
          "name": "category",
          "type": "string"
        },
        {
          "internalType": "string",
          "name": "image",
          "type": "string"
        },
        {
          "internalType": "uint256",
          "name": "ticketPrice",
          "type": "uint256"
        },
        {
          "internalType": "uint256",
          "name": "totalTickets",
          "type": "uint256"
        },
        {
          "internalType": "uint256",
          "name": "ticketsSold",
          "type": "uint256"
        },
        {
          "internalType": "bool",
          "name": "published",
          "type": "bool"
        },
        {
          "internalType": "bool",
          "name": "ended",
          "type": "bool"
        }
      ],
      "stateMutability": "view",
      "type": "function"
    },
    {
      "inputs": [],
      "name": "nextEventId",
      "outputs": [
        {
          "internalType": "uint256",
          "name": "",
          "type": "uint256"
        }
      ],
      "stateMutability": "view",
      "type": "function"
    },
    {
      "inputs": [],
      "name": "owner",
      "outputs": [
        {
          "internalType": "address",
          "name": "",
          "type": "address"
        }
      ],
      "stateMutability": "view",
      "type": "function"
    },
    {
      "inputs": [],
      "name": "renounceOwnership",
      "outputs": [],
      "stateMutability": "nonpayable",
      "type": "function"
    },
    {
      "inputs": [],
      "name": "ticketNFT",
      "outputs": [
        {
          "internalType": "contract TicketNFT",
          "name": "",
          "type": "address"
        }
      ],
      "stateMutability": "view",
      "type": "function"
    },
    {
      "inputs": [
        {
          "internalType": "uint256",
          "name": "",
          "type": "uint256"
        }
      ],
      "name": "ticketToEvent",
      "outputs": [
        {
          "internalType": "uint256",
          "name": "",
          "type": "uint256"
        }
      ],
      "stateMutability": "view",
      "type": "function"
    },
    {
      "inputs": [
        {
          "internalType": "address",
          "name": "newOwner",
          "type": "address"
        }
      ],
      "name": "transferOwnership",
      "outputs": [],
      "stateMutability": "nonpayable",
      "type": "function"
    },
    {
      "inputs": [
        {
          "internalType": "string",
          "name": "title",
          "type": "string"
        },
        {
          "internalType": "string",
          "name": "date",
          "type": "string"
        },
        {
          "internalType": "string",
          "name": "venue",
          "type": "string"
        },
        {
          "internalType": "string",
          "name": "description",
          "type": "string"
        },
        {
          "internalType": "string",
          "name": "category",
          "type": "string"
        },
        {
          "internalType": "string",
          "name": "image",
          "type": "string"
        },
        {
          "internalType": "uint256",
          "name": "ticketPrice",
          "type": "uint256"
        },
        {
          "internalType": "uint256",
          "name": "totalTickets",
          "type": "uint256"
        }
      ],
      "name": "createEvent",
      "outputs": [],
      "stateMutability": "nonpayable",
      "type": "function"
    },
    {
      "inputs": [
        {
          "internalType": "uint256",
          "name": "eventId",
          "type": "uint256"
        },
        {
          "internalType": "string",
          "name": "tokenURI",
          "type": "string"
        }
      ],
      "name": "buyTicket",
      "outputs": [],
      "stateMutability": "payable",
      "type": "function"
    },
    {
      "inputs": [],
      "name": "withdraw",
      "outputs": [],
      "stateMutability": "nonpayable",
      "type": "function"
    },
    {
      "inputs": [
        {
          "internalType": "uint256",
          "name": "eventId",
          "type": "uint256"
        }
      ],
      "name": "endEvent",
      "outputs": [],
      "stateMutability": "nonpayable",
      "type": "function"
    }
  ],
  "bytecode": "0x6080346100a857601f6113db38819003918201601f19168301916001600160401b038311848410176100ac578084926020946040528339810103126100a857516001600160a01b0390818116908190036100a8575f5460018060a01b03199033828216175f55604051933391167f8be0079c531659141344cd1fd0a4f28419497f9722a3daafe3b4186f6b6457e05f80a360018055600254161760025561131a90816100c18239f35b5f80fd5b634e487b7160e01b5f52604160045260245ffdfe60806040526004361015610011575f80fd5b5f803560e01c80630b79143014610f7c578063330a347b14610f425780633ccfd60b14610ef3578063715018a614610e99578063779cea7714610e515780638da5cb5b14610e2a5780639afb93cb14610bbf5780639f1e7ca6146101df5780639f9d903a146101c1578063b393391b14610198578063f2fde38b146100ca5763f6ac04da1461009e575f80fd5b346100c75760203660031901126100c75760406020916004358152600683522054604051908152f35b80fd5b50346100c75760203660031901126100c7576004356001600160a01b0381811691829003610194576100fa61126b565b8115610140575f54826bffffffffffffffffffffffff60a01b8216175f55167f8be0079c531659141344cd1fd0a4f28419497f9722a3daafe3b4186f6b6457e05f80a380f35b60405162461bcd60e51b815260206004820152602660248201527f4f776e61626c653a206e6577206f776e657220697320746865207a65726f206160448201526564647265737360d01b6064820152608490fd5b8280fd5b50346100c757806003193601126100c7576002546040516001600160a01b039091168152602090f35b50346100c757806003193601126100c7576020600354604051908152f35b50346100c7576101003660031901126100c7576004356001600160401b038111610bbb57610211903690600401611216565b6024356001600160401b03811161019457610230903690600401611216565b906044356001600160401b038111610bb757610250903690600401611216565b6064356001600160401b038111610bb35761026f903690600401611216565b6084356001600160401b038111610baf5761028e903690600401611216565b9060a4356001600160401b038111610bab576102ae903690600401611216565b926102b761126b565b600354956102c4876112c2565b60035560405195866101a08101106001600160401b036101a089011117610b97576101a0870160405287875233602088015260408701526060860152608085015260a084015260c083015260e082015260c43561010082015260e435610120820152826101408201528261016082015282610180820152818352600460205260408320815181556001810160018060a01b036020840151166bffffffffffffffffffffffff60a01b82541617905560408201518051906001600160401b03821161069757819061039760028501546110b5565b601f8111610b47575b50602090601f8311600114610ad9578792610ace575b50508160011b915f199060031b1c19161760028201555b60608201518051906001600160401b0382116106975781906103f260038501546110b5565b601f8111610a7e575b50602090601f8311600114610a10578792610a05575b50508160011b915f199060031b1c19161760038201555b60808201518051906001600160401b03821161069757819061044d60048501546110b5565b601f81116109b5575b50602090601f831160011461094757879261093c575b50508160011b915f199060031b1c19161760048201555b60a08201518051906001600160401b0382116106975781906104a860058501546110b5565b601f81116108ec575b50602090601f831160011461087e578792610873575b50508160011b915f199060031b1c19161760058201555b60c08201518051906001600160401b03821161069757819061050360068501546110b5565b601f8111610823575b50602090601f83116001146107b55787926107aa575b50508160011b915f199060031b1c19161760068201555b60e08201518051906001600160401b0382116106975761055c60078401546110b5565b601f8111610766575b50602090601f83116001146106f757600b9392918791836106ec575b50508160011b915f199060031b1c19161760078201555b61010083015160088201556101208301516009820155610140830151600a820155019061016081015115159060ff61ff006101808554930151151560081b1692169061ffff191617179055815b60e43581106105f2578280f35b82602060018060a01b03600254166064604051809481936314e2210b60e21b8352306004840152604060248401528160448401525af19081156106e15784916106ab575b5082845260056020526040842080549068010000000000000000821015610697578161066c9160016106929695940181556111ed565b81549060031b9083821b915f19901b1916179055845260066020528260408520556112c2565b6105e5565b634e487b7160e01b86526041600452602486fd5b90506020813d6020116106d9575b816106c6602093836110ed565b810103126106d557515f610636565b5f80fd5b3d91506106b9565b6040513d86823e3d90fd5b015190505f80610581565b906007840187526020872091875b601f198516811061074e5750918391600193600b9695601f19811610610736575b505050811b016007820155610598565b01515f1960f88460031b161c191690555f8080610726565b91926020600181928685015181550194019201610705565b60078401875260208720601f840160051c8101602085106107a3575b601f830160051c82018110610798575050610565565b5f8155600101610782565b5080610782565b015190505f80610522565b9250600684018752602087209087935b601f1984168510610808576001945083601f198116106107f0575b505050811b016006820155610539565b01515f1960f88460031b161c191690555f80806107e0565b818101518355602094850194600190930192909101906107c5565b90915060068401875260208720601f840160051c81016020851061086c575b90849392915b601f830160051c8201811061085e57505061050c565b5f8155859450600101610848565b5080610842565b015190505f806104c7565b9250600584018752602087209087935b601f19841685106108d1576001945083601f198116106108b9575b505050811b0160058201556104de565b01515f1960f88460031b161c191690555f80806108a9565b8181015183556020948501946001909301929091019061088e565b90915060058401875260208720601f840160051c810160208510610935575b90849392915b601f830160051c820181106109275750506104b1565b5f8155859450600101610911565b508061090b565b015190505f8061046c565b9250600484018752602087209087935b601f198416851061099a576001945083601f19811610610982575b505050811b016004820155610483565b01515f1960f88460031b161c191690555f8080610972565b81810151835560209485019460019093019290910190610957565b90915060048401875260208720601f840160051c8101602085106109fe575b90849392915b601f830160051c820181106109f0575050610456565b5f81558594506001016109da565b50806109d4565b015190505f80610411565b9250600384018752602087209087935b601f1984168510610a63576001945083601f19811610610a4b575b505050811b016003820155610428565b01515f1960f88460031b161c191690555f8080610a3b565b81810151835560209485019460019093019290910190610a20565b90915060038401875260208720601f840160051c810160208510610ac7575b90849392915b601f830160051c82018110610ab95750506103fb565b5f8155859450600101610aa3565b5080610a9d565b015190505f806103b6565b9250600284018752602087209087935b601f1984168510610b2c576001945083601f19811610610b14575b505050811b0160028201556103cd565b01515f1960f88460031b161c191690555f8080610b04565b81810151835560209485019460019093019290910190610ae9565b90915060028401875260208720601f840160051c810160208510610b90575b90849392915b601f830160051c82018110610b825750506103a0565b5f8155859450600101610b6c565b5080610b66565b634e487b7160e01b5f52604160045260245ffd5b8680fd5b8580fd5b8480fd5b8380fd5b5080fd5b5060403660031901126100c757600435906001600160401b0360248035828111610bb757610bf1903690600401611216565b91600260015414610de65760026001558484526020600481526040852060ff600b82015460081c16610db457600a8101968754916009810154831015610d8557600801543403610d515790610c4f91875260058352604087206111ed565b94905491610c8e8160018060a01b0393846002541660408b8a8251968795869485936314e2210b60e21b855233600486015284015260448301906111af565b03925af18015610d4657610d1d575b50506002541693843b15610baf579060648692836040519788948593632142170760e11b8552306004860152338a86015260031b1c60448401525af180156106e157610cf9575b8385610cf081546112c2565b90556001805580f35b8211610d0b57506040525f8080610ce4565b634e487b7160e01b8352604160045282fd5b813d8311610d3f575b610d3081836110ed565b81010312610baf575f80610c9d565b503d610d26565b6040513d8a823e3d90fd5b60405162461bcd60e51b815260048101849052600d818701526c092dcc6dee4e4cac6e8408aa89609b1b6044820152606490fd5b60405162461bcd60e51b8152600481018590526008818801526714dbdb19081bdd5d60c21b6044820152606490fd5b60405162461bcd60e51b815260048101839052600b818601526a115d995b9d08195b99195960aa1b6044820152606490fd5b60405162461bcd60e51b815260206004820152601f818401527f5265656e7472616e637947756172643a207265656e7472616e742063616c6c006044820152606490fd5b50346100c757806003193601126100c757546040516001600160a01b039091168152602090f35b50346100c75760403660031901126100c7576024359060043581526005602052604081209081548310156100c7576020610e8b84846111ed565b90546040519160031b1c8152f35b50346100c757806003193601126100c757610eb261126b565b80546001600160a01b03198116825581906001600160a01b03167f8be0079c531659141344cd1fd0a4f28419497f9722a3daafe3b4186f6b6457e08280a380f35b50346100c757806003193601126100c757610f0c61126b565b8080808060018060a01b038154164790828215610f39575bf115610f2d5780f35b604051903d90823e3d90fd5b506108fc610f24565b50346100c75760203660031901126100c757610f5c61126b565b60048035825260205260408120600b01805461ff00191661010017905580f35b50346100c75760203660031901126100c75760048035825260205260409020805460018201546001600160a01b031691610fb86002820161110e565b610fc46003830161110e565b91610fd16004820161110e565b92610fde6005830161110e565b610fea6006840161110e565b610ff66007850161110e565b91600885015496600986015494600a87015496600b0154976040519b8c9b8c5260208c01526101a08060408d01528b0161102f916111af565b8a810360608c0152611040916111af565b89810360808b0152611051916111af565b88810360a08a0152611062916111af565b87810360c0890152611073916111af565b86810360e0880152611084916111af565b9361010086015261012085015261014084015260ff8116151561016084015260081c60ff1615156101808301520390f35b90600182811c921680156110e3575b60208310146110cf57565b634e487b7160e01b5f52602260045260245ffd5b91607f16916110c4565b90601f801991011681019081106001600160401b03821117610b9757604052565b9060405191825f825492611121846110b5565b9081845260019485811690815f1461118c575060011461114c575b505061114a925003836110ed565b565b909391505f52602090815f20935f915b81831061117457505061114a93508201015f8061113c565b8554888401850152948501948794509183019161115c565b91505061114a94506020925060ff191682840152151560051b8201015f8061113c565b91908251928382525f5b8481106111d9575050825f602080949584010152601f8019910116010190565b6020818301810151848301820152016111b9565b8054821015611202575f5260205f2001905f90565b634e487b7160e01b5f52603260045260245ffd5b81601f820112156106d5578035906001600160401b038211610b97576040519261124a601f8401601f1916602001856110ed565b828452602083830101116106d557815f926020809301838601378301015290565b5f546001600160a01b0316330361127e57565b606460405162461bcd60e51b815260206004820152602060248201527f4f776e61626c653a2063616c6c6572206973206e6f7420746865206f776e65726044820152fd5b5f1981146112d05760010190565b634e487b7160e01b5f52601160045260245ffdfea264697066735822122024f7345e9f4ad2e7d796de56c3fa2cc40735a07875ef717a377f6a542508ac8764736f6c63430008140033",
  "immutableReferences": {},
  "source": "// SPDX-License-Identifier: MIT\npragma solidity ^0.8.20;\n\nimport \"@openzeppelin/contracts/access/Ownable.sol\";\nimport \"@openzeppelin/contracts/security/ReentrancyGuard.sol\";\nimport \"./TicketNFT.sol\";\n\ncontract EventManager is Ownable, ReentrancyGuard {\n    TicketNFT public ticketNFT;\n    uint256 public nextEventId;\n\n    struct Event {\n        uint256 id;\n        address organizer;\n        string title;\n        string date;\n        string venue;\n        string description;\n        string category;\n        string image;\n        uint256 ticketPrice;\n        uint256 totalTickets;\n        uint256 ticketsSold;\n        bool published;\n        bool ended;\n    }\n\n    mapping(uint256 => Event) public events;\n    mapping(uint256 => uint256[]) public eventTickets; // ticket IDs per event\n    mapping(uint256 => uint256) public ticketToEvent; // tokenId => eventId\n\n    constructor(address _ticketNFT) {\n        ticketNFT = TicketNFT(_ticketNFT);\n    }\n\n    // ------------------------\n    // Create Event\n    // ------------------------\n    function createEvent(\n        string memory title,\n        string memory date,\n        string memory venue,\n        string memory description,\n        string memory category,\n        string memory image,\n        uint256 ticketPrice,\n        uint256 totalTickets\n    ) external onlyOwner {\n        uint256 eventId = nextEventId++;\n        events[eventId] = Event({\n            id: eventId,\n            organizer: msg.sender,\n            title: title,\n            date: date,\n            venue: venue,\n            description: description,\n            category: category,\n            image: image,\n            ticketPrice: ticketPrice,\n            totalTickets: totalTickets,\n            ticketsSold: 0,\n            published: false,\n            ended: false\n        });\n\n        // Mint NFT tickets to EventManager contract\n        for (uint256 i = 0; i < totalTickets; i++) {\n            uint256 tokenId = ticketNFT.mintTicket(address(this), \"\");\n            eventTickets[eventId].push(tokenId);\n            ticketToEvent[tokenId] = eventId;\n        }\n    }\n\n    // ------------------------\n    // Buy Ticket\n    // ------------------------\n    function buyTicket(\n        uint256 eventId,\n        string memory tokenURI\n    ) external payable nonReentrant {\n        Event storage e = events[eventId];\n        require(!e.ended, \"Event ended\");\n        require(e.ticketsSold < e.totalTickets, \"Sold out\");\n        require(msg.value == e.ticketPrice, \"Incorrect ETH\");\n\n        // Transfer next available ticket to buyer\n        uint256 ticketId = eventTickets[eventId][e.ticketsSold];\n        ticketNFT.mintTicket(msg.sender, tokenURI); // optional: update metadata\n        ticketNFT.safeTransferFrom(address(this), msg.sender, ticketId);\n\n        e.ticketsSold++;\n    }\n\n    // ------------------------\n    // Admin Functions\n    // ------------------------\n    function withdraw() external onlyOwner {\n        payable(owner()).transfer(address(this).balance);\n    }\n\n    function endEvent(uint256 eventId) external onlyOwner {\n        events[eventId].ended = true;\n    }\n}\n",
  "sourcePath": "/Users/thilan/web-dev/prestiqx/smart-contract/contracts/EventManager.sol",
  "compiler": {
    "name": "solc",
    "version": "0.8.20+commit.a1b79de6.Emscripten.clang"
  },
  "schemaVersion": "3.4.16",
  "updatedAt": "2026-01-15T13:02:54.438Z",
  "devdoc": {
    "kind": "dev",
    "methods": {
      "owner()": {
        "details": "Returns the address of the current owner."
      },
      "renounceOwnership()": {
        "details": "Leaves the contract without owner. It will not be possible to call `onlyOwner` functions. Can only be called by the current owner. NOTE: Renouncing ownership will leave the contract without an owner, thereby disabling any functionality that is only available to the owner."
      },
      "transferOwnership(address)": {
        "details": "Transfers ownership of the contract to a new account (`newOwner`). Can only be called by the current owner."
      }
    },
    "version": 1
  },
  "userdoc": {
    "kind": "user",
    "methods": {},
    "version": 1
  }
}