{
  "contractName": "EventManager",
  "abi": [
    {
      "inputs": [],
      "stateMutability": "nonpayable",
      "type": "constructor"
    },
    {
      "inputs": [
        {
          "internalType": "address",
          "name": "sender",
          "type": "address"
        },
        {
          "internalType": "uint256",
          "name": "tokenId",
          "type": "uint256"
        },
        {
          "internalType": "address",
          "name": "owner",
          "type": "address"
        }
      ],
      "name": "ERC721IncorrectOwner",
      "type": "error"
    },
    {
      "inputs": [
        {
          "internalType": "address",
          "name": "operator",
          "type": "address"
        },
        {
          "internalType": "uint256",
          "name": "tokenId",
          "type": "uint256"
        }
      ],
      "name": "ERC721InsufficientApproval",
      "type": "error"
    },
    {
      "inputs": [
        {
          "internalType": "address",
          "name": "approver",
          "type": "address"
        }
      ],
      "name": "ERC721InvalidApprover",
      "type": "error"
    },
    {
      "inputs": [
        {
          "internalType": "address",
          "name": "operator",
          "type": "address"
        }
      ],
      "name": "ERC721InvalidOperator",
      "type": "error"
    },
    {
      "inputs": [
        {
          "internalType": "address",
          "name": "owner",
          "type": "address"
        }
      ],
      "name": "ERC721InvalidOwner",
      "type": "error"
    },
    {
      "inputs": [
        {
          "internalType": "address",
          "name": "receiver",
          "type": "address"
        }
      ],
      "name": "ERC721InvalidReceiver",
      "type": "error"
    },
    {
      "inputs": [
        {
          "internalType": "address",
          "name": "sender",
          "type": "address"
        }
      ],
      "name": "ERC721InvalidSender",
      "type": "error"
    },
    {
      "inputs": [
        {
          "internalType": "uint256",
          "name": "tokenId",
          "type": "uint256"
        }
      ],
      "name": "ERC721NonexistentToken",
      "type": "error"
    },
    {
      "inputs": [
        {
          "internalType": "address",
          "name": "owner",
          "type": "address"
        }
      ],
      "name": "OwnableInvalidOwner",
      "type": "error"
    },
    {
      "inputs": [
        {
          "internalType": "address",
          "name": "account",
          "type": "address"
        }
      ],
      "name": "OwnableUnauthorizedAccount",
      "type": "error"
    },
    {
      "anonymous": false,
      "inputs": [
        {
          "indexed": true,
          "internalType": "address",
          "name": "owner",
          "type": "address"
        },
        {
          "indexed": true,
          "internalType": "address",
          "name": "approved",
          "type": "address"
        },
        {
          "indexed": true,
          "internalType": "uint256",
          "name": "tokenId",
          "type": "uint256"
        }
      ],
      "name": "Approval",
      "type": "event"
    },
    {
      "anonymous": false,
      "inputs": [
        {
          "indexed": true,
          "internalType": "address",
          "name": "owner",
          "type": "address"
        },
        {
          "indexed": true,
          "internalType": "address",
          "name": "operator",
          "type": "address"
        },
        {
          "indexed": false,
          "internalType": "bool",
          "name": "approved",
          "type": "bool"
        }
      ],
      "name": "ApprovalForAll",
      "type": "event"
    },
    {
      "anonymous": false,
      "inputs": [
        {
          "indexed": true,
          "internalType": "address",
          "name": "previousOwner",
          "type": "address"
        },
        {
          "indexed": true,
          "internalType": "address",
          "name": "newOwner",
          "type": "address"
        }
      ],
      "name": "OwnershipTransferred",
      "type": "event"
    },
    {
      "anonymous": false,
      "inputs": [
        {
          "indexed": true,
          "internalType": "address",
          "name": "from",
          "type": "address"
        },
        {
          "indexed": true,
          "internalType": "address",
          "name": "to",
          "type": "address"
        },
        {
          "indexed": true,
          "internalType": "uint256",
          "name": "tokenId",
          "type": "uint256"
        }
      ],
      "name": "Transfer",
      "type": "event"
    },
    {
      "inputs": [
        {
          "internalType": "uint256",
          "name": "",
          "type": "uint256"
        }
      ],
      "name": "allEvents",
      "outputs": [
        {
          "internalType": "uint256",
          "name": "",
          "type": "uint256"
        }
      ],
      "stateMutability": "view",
      "type": "function"
    },
    {
      "inputs": [
        {
          "internalType": "address",
          "name": "to",
          "type": "address"
        },
        {
          "internalType": "uint256",
          "name": "tokenId",
          "type": "uint256"
        }
      ],
      "name": "approve",
      "outputs": [],
      "stateMutability": "nonpayable",
      "type": "function"
    },
    {
      "inputs": [
        {
          "internalType": "address",
          "name": "owner",
          "type": "address"
        }
      ],
      "name": "balanceOf",
      "outputs": [
        {
          "internalType": "uint256",
          "name": "",
          "type": "uint256"
        }
      ],
      "stateMutability": "view",
      "type": "function"
    },
    {
      "inputs": [
        {
          "internalType": "address",
          "name": "",
          "type": "address"
        },
        {
          "internalType": "uint256",
          "name": "",
          "type": "uint256"
        }
      ],
      "name": "eventTickets",
      "outputs": [
        {
          "internalType": "uint256",
          "name": "",
          "type": "uint256"
        }
      ],
      "stateMutability": "view",
      "type": "function"
    },
    {
      "inputs": [
        {
          "internalType": "uint256",
          "name": "",
          "type": "uint256"
        }
      ],
      "name": "events",
      "outputs": [
        {
          "internalType": "uint256",
          "name": "id",
          "type": "uint256"
        },
        {
          "internalType": "address",
          "name": "organizer",
          "type": "address"
        },
        {
          "internalType": "string",
          "name": "title",
          "type": "string"
        },
        {
          "internalType": "string",
          "name": "date",
          "type": "string"
        },
        {
          "internalType": "string",
          "name": "venue",
          "type": "string"
        },
        {
          "internalType": "string",
          "name": "description",
          "type": "string"
        },
        {
          "internalType": "string",
          "name": "category",
          "type": "string"
        },
        {
          "internalType": "string",
          "name": "image",
          "type": "string"
        },
        {
          "internalType": "uint256",
          "name": "ticketPrice",
          "type": "uint256"
        },
        {
          "internalType": "uint256",
          "name": "totalTickets",
          "type": "uint256"
        },
        {
          "internalType": "uint256",
          "name": "ticketsSold",
          "type": "uint256"
        },
        {
          "internalType": "bool",
          "name": "published",
          "type": "bool"
        },
        {
          "internalType": "bool",
          "name": "ended",
          "type": "bool"
        }
      ],
      "stateMutability": "view",
      "type": "function"
    },
    {
      "inputs": [
        {
          "internalType": "uint256",
          "name": "tokenId",
          "type": "uint256"
        }
      ],
      "name": "getApproved",
      "outputs": [
        {
          "internalType": "address",
          "name": "",
          "type": "address"
        }
      ],
      "stateMutability": "view",
      "type": "function"
    },
    {
      "inputs": [
        {
          "internalType": "address",
          "name": "owner",
          "type": "address"
        },
        {
          "internalType": "address",
          "name": "operator",
          "type": "address"
        }
      ],
      "name": "isApprovedForAll",
      "outputs": [
        {
          "internalType": "bool",
          "name": "",
          "type": "bool"
        }
      ],
      "stateMutability": "view",
      "type": "function"
    },
    {
      "inputs": [],
      "name": "name",
      "outputs": [
        {
          "internalType": "string",
          "name": "",
          "type": "string"
        }
      ],
      "stateMutability": "view",
      "type": "function"
    },
    {
      "inputs": [],
      "name": "nextEventId",
      "outputs": [
        {
          "internalType": "uint256",
          "name": "",
          "type": "uint256"
        }
      ],
      "stateMutability": "view",
      "type": "function"
    },
    {
      "inputs": [],
      "name": "nextTicketId",
      "outputs": [
        {
          "internalType": "uint256",
          "name": "",
          "type": "uint256"
        }
      ],
      "stateMutability": "view",
      "type": "function"
    },
    {
      "inputs": [
        {
          "internalType": "address",
          "name": "",
          "type": "address"
        },
        {
          "internalType": "uint256",
          "name": "",
          "type": "uint256"
        }
      ],
      "name": "organizerEvents",
      "outputs": [
        {
          "internalType": "uint256",
          "name": "",
          "type": "uint256"
        }
      ],
      "stateMutability": "view",
      "type": "function"
    },
    {
      "inputs": [],
      "name": "owner",
      "outputs": [
        {
          "internalType": "address",
          "name": "",
          "type": "address"
        }
      ],
      "stateMutability": "view",
      "type": "function"
    },
    {
      "inputs": [
        {
          "internalType": "uint256",
          "name": "tokenId",
          "type": "uint256"
        }
      ],
      "name": "ownerOf",
      "outputs": [
        {
          "internalType": "address",
          "name": "",
          "type": "address"
        }
      ],
      "stateMutability": "view",
      "type": "function"
    },
    {
      "inputs": [],
      "name": "renounceOwnership",
      "outputs": [],
      "stateMutability": "nonpayable",
      "type": "function"
    },
    {
      "inputs": [
        {
          "internalType": "address",
          "name": "from",
          "type": "address"
        },
        {
          "internalType": "address",
          "name": "to",
          "type": "address"
        },
        {
          "internalType": "uint256",
          "name": "tokenId",
          "type": "uint256"
        }
      ],
      "name": "safeTransferFrom",
      "outputs": [],
      "stateMutability": "nonpayable",
      "type": "function"
    },
    {
      "inputs": [
        {
          "internalType": "address",
          "name": "from",
          "type": "address"
        },
        {
          "internalType": "address",
          "name": "to",
          "type": "address"
        },
        {
          "internalType": "uint256",
          "name": "tokenId",
          "type": "uint256"
        },
        {
          "internalType": "bytes",
          "name": "data",
          "type": "bytes"
        }
      ],
      "name": "safeTransferFrom",
      "outputs": [],
      "stateMutability": "nonpayable",
      "type": "function"
    },
    {
      "inputs": [
        {
          "internalType": "address",
          "name": "operator",
          "type": "address"
        },
        {
          "internalType": "bool",
          "name": "approved",
          "type": "bool"
        }
      ],
      "name": "setApprovalForAll",
      "outputs": [],
      "stateMutability": "nonpayable",
      "type": "function"
    },
    {
      "inputs": [
        {
          "internalType": "bytes4",
          "name": "interfaceId",
          "type": "bytes4"
        }
      ],
      "name": "supportsInterface",
      "outputs": [
        {
          "internalType": "bool",
          "name": "",
          "type": "bool"
        }
      ],
      "stateMutability": "view",
      "type": "function"
    },
    {
      "inputs": [],
      "name": "symbol",
      "outputs": [
        {
          "internalType": "string",
          "name": "",
          "type": "string"
        }
      ],
      "stateMutability": "view",
      "type": "function"
    },
    {
      "inputs": [
        {
          "internalType": "uint256",
          "name": "",
          "type": "uint256"
        }
      ],
      "name": "ticketToEvent",
      "outputs": [
        {
          "internalType": "uint256",
          "name": "",
          "type": "uint256"
        }
      ],
      "stateMutability": "view",
      "type": "function"
    },
    {
      "inputs": [
        {
          "internalType": "uint256",
          "name": "tokenId",
          "type": "uint256"
        }
      ],
      "name": "tokenURI",
      "outputs": [
        {
          "internalType": "string",
          "name": "",
          "type": "string"
        }
      ],
      "stateMutability": "view",
      "type": "function"
    },
    {
      "inputs": [
        {
          "internalType": "address",
          "name": "from",
          "type": "address"
        },
        {
          "internalType": "address",
          "name": "to",
          "type": "address"
        },
        {
          "internalType": "uint256",
          "name": "tokenId",
          "type": "uint256"
        }
      ],
      "name": "transferFrom",
      "outputs": [],
      "stateMutability": "nonpayable",
      "type": "function"
    },
    {
      "inputs": [
        {
          "internalType": "address",
          "name": "newOwner",
          "type": "address"
        }
      ],
      "name": "transferOwnership",
      "outputs": [],
      "stateMutability": "nonpayable",
      "type": "function"
    },
    {
      "inputs": [
        {
          "internalType": "string",
          "name": "title",
          "type": "string"
        },
        {
          "internalType": "string",
          "name": "date",
          "type": "string"
        },
        {
          "internalType": "string",
          "name": "venue",
          "type": "string"
        },
        {
          "internalType": "string",
          "name": "description",
          "type": "string"
        },
        {
          "internalType": "string",
          "name": "category",
          "type": "string"
        },
        {
          "internalType": "string",
          "name": "image",
          "type": "string"
        },
        {
          "internalType": "uint256",
          "name": "ticketPrice",
          "type": "uint256"
        },
        {
          "internalType": "uint256",
          "name": "totalTickets",
          "type": "uint256"
        }
      ],
      "name": "createEvent",
      "outputs": [],
      "stateMutability": "nonpayable",
      "type": "function"
    },
    {
      "inputs": [
        {
          "internalType": "address",
          "name": "organizer",
          "type": "address"
        }
      ],
      "name": "getOrganizerEvents",
      "outputs": [
        {
          "internalType": "uint256[]",
          "name": "",
          "type": "uint256[]"
        }
      ],
      "stateMutability": "view",
      "type": "function"
    },
    {
      "inputs": [],
      "name": "getAllEvents",
      "outputs": [
        {
          "internalType": "uint256[]",
          "name": "",
          "type": "uint256[]"
        }
      ],
      "stateMutability": "view",
      "type": "function"
    },
    {
      "inputs": [
        {
          "internalType": "uint256",
          "name": "eventId",
          "type": "uint256"
        }
      ],
      "name": "getEvent",
      "outputs": [
        {
          "components": [
            {
              "internalType": "uint256",
              "name": "id",
              "type": "uint256"
            },
            {
              "internalType": "address",
              "name": "organizer",
              "type": "address"
            },
            {
              "internalType": "string",
              "name": "title",
              "type": "string"
            },
            {
              "internalType": "string",
              "name": "date",
              "type": "string"
            },
            {
              "internalType": "string",
              "name": "venue",
              "type": "string"
            },
            {
              "internalType": "string",
              "name": "description",
              "type": "string"
            },
            {
              "internalType": "string",
              "name": "category",
              "type": "string"
            },
            {
              "internalType": "string",
              "name": "image",
              "type": "string"
            },
            {
              "internalType": "uint256",
              "name": "ticketPrice",
              "type": "uint256"
            },
            {
              "internalType": "uint256",
              "name": "totalTickets",
              "type": "uint256"
            },
            {
              "internalType": "uint256",
              "name": "ticketsSold",
              "type": "uint256"
            },
            {
              "internalType": "bool",
              "name": "published",
              "type": "bool"
            },
            {
              "internalType": "bool",
              "name": "ended",
              "type": "bool"
            }
          ],
          "internalType": "struct EventManager.Event",
          "name": "",
          "type": "tuple"
        }
      ],
      "stateMutability": "view",
      "type": "function"
    },
    {
      "inputs": [
        {
          "internalType": "uint256",
          "name": "eventId",
          "type": "uint256"
        }
      ],
      "name": "buyTicket",
      "outputs": [],
      "stateMutability": "payable",
      "type": "function"
    }
  ],
  "bytecode": "0x60803462000374576001600160401b039060408181018381118382101762000360578152600b82526020916a115d995b9d151a58dad95d60aa1b838201528151938285018581108282111762000360578352600785526611551250d2d15560ca1b84860152815181811162000360575f948554916001948584811c9416801562000355575b8385101462000341578190601f94858111620002ee575b5083908583116001146200028b5789926200027f575b50505f19600383901b1c191690851b1786555b86519283116200026b5783548481811c9116801562000260575b828210146200024c5782811162000204575b50809183116001146200019e57508495829394959262000192575b50505f19600383901b1c191690821b1790555b33156200017a5760068054336001600160a01b03198216811790925591519290916001600160a01b0316907f8be0079c531659141344cd1fd0a4f28419497f9722a3daafe3b4186f6b6457e09080a3611ef79081620003798239f35b51631e4fbdf760e01b81526004810191909152602490fd5b015190505f806200010b565b90601f198316968487528287209287905b898210620001ec575050838596979810620001d3575b505050811b0190556200011e565b01515f1960f88460031b161c191690555f8080620001c5565b808785968294968601518155019501930190620001af565b8487528187208380860160051c82019284871062000242575b0160051c019085905b82811062000236575050620000f0565b88815501859062000226565b925081926200021d565b634e487b7160e01b87526022600452602487fd5b90607f1690620000de565b634e487b7160e01b86526041600452602486fd5b015190505f80620000b1565b898052848a208894509190601f1984168b5b87828210620002d75750508411620002be575b505050811b018655620000c4565b01515f1960f88460031b161c191690555f8080620002b0565b8385015186558b979095019493840193016200029d565b9091508880528389208580850160051c82019286861062000337575b918991869594930160051c01915b828110620003285750506200009b565b8b815585945089910162000318565b925081926200030a565b634e487b7160e01b88526022600452602488fd5b93607f169362000084565b634e487b7160e01b5f52604160045260245ffd5b5f80fdfe6080806040526004361015610012575f80fd5b5f3560e01c90816301ffc9a71461186a5750806306fdde03146117ca578063081812fc1461178e578063095ea7b3146116ad5780630b7914301461157257806323b872dd1461155b5780633bec5cff1461150b57806342842e0e146114e45780636031a52f146114c75780636352211e1461149757806367dd74ca146112665780636d1884e01461102657806370a0823114610fd0578063715018a614610f7557806378ebf3e914610f2c5780638da5cb5b14610f0457806395d89b4114610e285780639f1e7ca6146105225780639f9d903a14610505578063a22cb4651461045b578063b88d4fde146103fa578063c27a500d14610382578063c87b56dd14610331578063e4aa47e3146102da578063e985e9c514610288578063f2fde38b14610201578063f6ac04da146101d75763ff9f597014610150575f80fd5b346101d3576020806003193601126101d3576001600160a01b03610172611913565b165f52600b815260405f209060405190818184549182815201935f52815f20915f905b8282106101bc576101b8856101ac818903826119ae565b60405191829182611b29565b0390f35b835486529485019460019384019390910190610195565b5f80fd5b346101d35760203660031901126101d3576004355f52600d602052602060405f2054604051908152f35b346101d35760203660031901126101d35761021a611913565b610222611b63565b6001600160a01b0390811690811561027057600654826001600160601b0360a01b821617600655167f8be0079c531659141344cd1fd0a4f28419497f9722a3daafe3b4186f6b6457e05f80a3005b604051631e4fbdf760e01b81525f6004820152602490fd5b346101d35760403660031901126101d3576102a1611913565b6102a9611929565b9060018060a01b038091165f52600560205260405f2091165f52602052602060ff60405f2054166040519015158152f35b346101d35760403660031901126101d3576102f3611913565b6001600160a01b03165f908152600b60205260409020805460243591908210156101d35760209161032391611aa5565b90546040519160031b1c8152f35b346101d35760203660031901126101d35761034d600435611e65565b505f60405161035b81611993565b526101b860405161036b81611993565b5f81526040519182916020835260208301906118d5565b346101d3575f3660031901126101d35760405180600a5491828152602080910192600a5f527fc65a7bb8d6351c1cf70c95a316cc6a92839c986682d98bc35f958f4883f9d2a8915f905b8282106103e3576101b8856101ac818903826119ae565b8354865294850194600193840193909101906103cc565b346101d35760803660031901126101d357610413611913565b61041b611929565b606435916001600160401b0383116101d357366023840112156101d35761044f610459933690602481600401359101611ad5565b9160443591611d12565b005b346101d35760403660031901126101d357610474611913565b60243590811515908183036101d3576001600160a01b03169182156104ec576104be90335f52600560205260405f20845f5260205260405f209060ff801983541691151516179055565b6040519081527f17307eab39ab6107e8899845ad3d59bd9653f200f220920489ca2b5937696c3160203392a3005b604051630b61174360e31b815260048101849052602490fd5b346101d3575f3660031901126101d3576020600754604051908152f35b346101d3576101003660031901126101d3576004356001600160401b0381116101d357610553903690600401611b0b565b6024356001600160401b0381116101d357610572903690600401611b0b565b6044356001600160401b0381116101d357610591903690600401611b0b565b6064356001600160401b0381116101d3576105b0903690600401611b0b565b6084356001600160401b0381116101d3576105cf903690600401611b0b565b9060a4356001600160401b0381116101d3576105ef903690600401611b0b565b92600754946105fd86611e9f565b6007556040519661060d88611977565b86885233602089015260408801526060870152608086015260a085015260c084015260e083015260c43561010083015260e4356101208301525f6101408301525f6101608301525f610180830152805f52600960205260405f2090825182556001820160018060a01b036020850151166001600160601b0360a01b82541617905560408301519283516001600160401b0381116109b1576106b1600285015461193f565b601f8111610de4575b506020601f8211600114610d795781929394955f92610d6e575b50508160011b915f199060031b1c19161760028401555b60608101519283516001600160401b0381116109b15761070e600383015461193f565b601f8111610d2a575b506020601f8211600114610cbf5781929394955f92610cb4575b50508160011b915f199060031b1c19161760038201555b60808201519283516001600160401b0381116109b15761076b600484015461193f565b601f8111610c70575b506020601f8211600114610c055781929394955f92610bfa575b50508160011b915f199060031b1c19161760048301555b60a08301519283516001600160401b0381116109b1576107c8600585015461193f565b601f8111610bb6575b506020601f8211600114610b4b5781929394955f92610b40575b50508160011b915f199060031b1c19161760058401555b60c08101519283516001600160401b0381116109b157610825600683015461193f565b601f8111610afc575b506020601f8211600114610a915781929394955f92610a86575b50508160011b915f199060031b1c19161760068201555b60e08201518051906001600160401b0382116109b157610882600784015461193f565b601f8111610a42575b50602090601f83116001146109d05791806101809492600b945f926109c5575b50508160011b915f199060031b1c19161760078201555b61010084015160088201556101208401516009820155610140840151600a82015501916109026101608201511515849060ff801983541691151516179055565b0151151561ff0082549160081b169061ff001916179055335f52600b60205260405f208054906801000000000000000091828110156109b15761094a91600182018155611aa5565b81549060031b9084821b915f19901b1916179055600a54908110156109b1576001810180600a5581101561099d577fc65a7bb8d6351c1cf70c95a316cc6a92839c986682d98bc35f958f4883f9d2a80155005b634e487b7160e01b5f52603260045260245ffd5b634e487b7160e01b5f52604160045260245ffd5b0151905087806108ab565b90600784015f5260205f20915f5b601f1985168110610a2a5750926101809492600192600b9583601f19811610610a12575b505050811b0160078201556108c2565b01515f1960f88460031b161c19169055878080610a02565b919260206001819286850151815501940192016109de565b600784015f5260205f20601f840160051c810160208510610a7f575b601f830160051c82018110610a7457505061088b565b5f8155600101610a5e565b5080610a5e565b015190508580610848565b600683015f5260205f20905f5b601f1984168110610ae4575060019394959683601f19811610610acc575b505050811b01600682015561085f565b01515f1960f88460031b161c19169055858080610abc565b9091602060018192858b015181550193019101610a9e565b600683015f5260205f20601f830160051c810160208410610b39575b601f830160051c82018110610b2e57505061082e565b5f8155600101610b18565b5080610b18565b0151905085806107eb565b600585015f5260205f20905f5b601f1984168110610b9e575060019394959683601f19811610610b86575b505050811b016005840155610802565b01515f1960f88460031b161c19169055858080610b76565b9091602060018192858b015181550193019101610b58565b600585015f5260205f20601f830160051c810160208410610bf3575b601f830160051c82018110610be85750506107d1565b5f8155600101610bd2565b5080610bd2565b01519050858061078e565b600484015f5260205f20905f5b601f1984168110610c58575060019394959683601f19811610610c40575b505050811b0160048301556107a5565b01515f1960f88460031b161c19169055858080610c30565b9091602060018192858b015181550193019101610c12565b600484015f5260205f20601f830160051c810160208410610cad575b601f830160051c82018110610ca2575050610774565b5f8155600101610c8c565b5080610c8c565b015190508580610731565b600383015f5260205f20905f5b601f1984168110610d12575060019394959683601f19811610610cfa575b505050811b016003820155610748565b01515f1960f88460031b161c19169055858080610cea565b9091602060018192858b015181550193019101610ccc565b600383015f5260205f20601f830160051c810160208410610d67575b601f830160051c82018110610d5c575050610717565b5f8155600101610d46565b5080610d46565b0151905085806106d4565b600285015f5260205f20905f5b601f1984168110610dcc575060019394959683601f19811610610db4575b505050811b0160028401556106eb565b01515f1960f88460031b161c19169055858080610da4565b9091602060018192858b015181550193019101610d86565b600285015f5260205f20601f830160051c810160208410610e21575b601f830160051c82018110610e165750506106ba565b5f8155600101610e00565b5080610e00565b346101d3575f3660031901126101d3576040515f6001805490610e4a8261193f565b80855291818116908115610edd5750600114610e85575b6101b884610e71818603826119ae565b6040519182916020835260208301906118d5565b5f81815292507fb10e2d527612073b26eecdfd717e6a320cf44b4afac2b0732d9fcbe2b7fa0cf65b828410610ec5575050508101602001610e7182610e61565b80546020858701810191909152909301928101610ead565b60ff191660208087019190915292151560051b85019092019250610e719150839050610e61565b346101d3575f3660031901126101d3576006546040516001600160a01b039091168152602090f35b346101d35760403660031901126101d357610f45611913565b6001600160a01b03165f908152600c60205260409020805460243591908210156101d35760209161032391611aa5565b346101d3575f3660031901126101d357610f8d611b63565b600680546001600160a01b031981169091555f906001600160a01b03167f8be0079c531659141344cd1fd0a4f28419497f9722a3daafe3b4186f6b6457e08280a3005b346101d35760203660031901126101d3576001600160a01b03610ff1611913565b16801561100e575f526003602052602060405f2054604051908152f35b6040516322718ad960e21b81525f6004820152602490fd5b346101d35760203660031901126101d3575f61018060405161104781611977565b8281528260208201526060604082015260608082015260606080820152606060a0820152606060c0820152606060e08201528261010082015282610120820152826101408201528261016082015201526004355f52600960205260405f2060ff600b604051926110b684611977565b8054845260018101546001600160a01b031660208501526110d9600282016119cf565b60408501526110ea600382016119cf565b60608501526110fb600482016119cf565b608085015261110c600582016119cf565b60a085015261111d600682016119cf565b60c085015261112e600782016119cf565b60e085015260088101546101008501526009810154610120850152600a8101546101408501520154818116151561016084015260081c1615156101808201526040518091602082528051602083015260018060a01b0360208201511660408301526101806112276111b060408401516101a060608701526101c08601906118d5565b6112116111fd6111e96111d5606088015194601f1995868b83030160808c01526118d5565b6080880151858a83030160a08b01526118d5565b60a0870151848983030160c08a01526118d5565b60c0860151838883030160e08901526118d5565b9060e085015190868303016101008701526118d5565b91610100810151610120850152610120810151610140850152610140810151610160850152610160810151151582850152015115156101a08301520390f35b6020806003193601126101d357600435805f526009825260405f20918183540361145c5760ff600b84015460081c1661142a57600a8301928354600982015411156113fa576008015434106113c057600854906112c282611e9f565b60085533156113a8575f8281526002825260409020546001600160a01b031680151590839082611377575b335f526003845260405f2060018154019055815f526002845260405f20336001600160601b0360a01b82541617905533907fddf252ad1be2c89b69c2b068fc378daa952ba7f163c4a11628f55a4df523b3ef5f80a461135f57600d915f525260405f205561135b8154611e9f565b9055005b6040516339e3563760e11b81525f6004820152602490fd5b5f8281526004602052604080822080546001600160a01b031916905582825260038652902080545f190190556112ed565b604051633250574960e11b81525f6004820152602490fd5b6064906040519062461bcd60e51b825260048201526013602482015272139bdd08195b9bdd59da08115512081cd95b9d606a1b6044820152fd5b60405162461bcd60e51b815260048101839052600860248201526714dbdb19081bdd5d60c21b6044820152606490fd5b6064906040519062461bcd60e51b82526004820152600b60248201526a115d995b9d08195b99195960aa1b6044820152fd5b6064906040519062461bcd60e51b825260048201526014602482015273115d995b9d08191bd95cc81b9bdd08195e1a5cdd60621b6044820152fd5b346101d35760203660031901126101d35760206114b5600435611e65565b6040516001600160a01b039091168152f35b346101d3575f3660031901126101d3576020600854604051908152f35b346101d3576104596114f536611a70565b906040519261150384611993565b5f8452611d12565b346101d35760203660031901126101d357600435600a548110156101d357602090600a5f527fc65a7bb8d6351c1cf70c95a316cc6a92839c986682d98bc35f958f4883f9d2a80154604051908152f35b346101d35761045961156c36611a70565b91611b8f565b346101d35760203660031901126101d3576004355f908152600960205260409020805460018201546001600160a01b0316916115b0600282016119cf565b6115bc600383016119cf565b916115c9600482016119cf565b926115d6600583016119cf565b6115e2600684016119cf565b6115ee600785016119cf565b91600885015496600986015494600a87015496600b0154976040519b8c9b8c5260208c01526101a08060408d01528b01611627916118d5565b8a810360608c0152611638916118d5565b89810360808b0152611649916118d5565b88810360a08a015261165a916118d5565b87810360c089015261166b916118d5565b86810360e088015261167c916118d5565b9361010086015261012085015261014084015260ff8116151561016084015260081c60ff1615156101808301520390f35b346101d35760403660031901126101d3576116c6611913565b6024356116d281611e65565b3315158061177b575b80611752575b61173a576001600160a01b039283169282918491167f8c5be1e5ebec7d5bd14f71427d1e84f3dd0314c0f7b2291e5b200ac8c7c3b9255f80a45f90815260046020526040902080546001600160a01b0319169091179055005b60405163a9fbf51f60e01b8152336004820152602490fd5b5060018060a01b0381165f52600560205260405f20335f5260205260ff60405f205416156116e1565b506001600160a01b0381163314156116db565b346101d35760203660031901126101d3576004356117ab81611e65565b505f526004602052602060018060a01b0360405f205416604051908152f35b346101d3575f3660031901126101d3576040515f80546117e98161193f565b80845290600190818116908115610edd5750600114611812576101b884610e71818603826119ae565b5f80805292507f290decd9548b62a8d60345a988386fc84ba6bc95484008f6362f93160ef3e5635b828410611852575050508101602001610e7182610e61565b8054602085870181019190915290930192810161183a565b346101d35760203660031901126101d3576004359063ffffffff60e01b82168092036101d3576020916380ac58cd60e01b81149081156118c4575b81156118b3575b5015158152f35b6301ffc9a760e01b149050836118ac565b635b5e139f60e01b811491506118a5565b91908251928382525f5b8481106118ff575050825f602080949584010152601f8019910116010190565b6020818301810151848301820152016118df565b600435906001600160a01b03821682036101d357565b602435906001600160a01b03821682036101d357565b90600182811c9216801561196d575b602083101461195957565b634e487b7160e01b5f52602260045260245ffd5b91607f169161194e565b6101a081019081106001600160401b038211176109b157604052565b602081019081106001600160401b038211176109b157604052565b90601f801991011681019081106001600160401b038211176109b157604052565b9060405191825f8254926119e28461193f565b9081845260019485811690815f14611a4d5750600114611a0d575b5050611a0b925003836119ae565b565b909391505f52602090815f20935f915b818310611a35575050611a0b93508201015f806119fd565b85548884018501529485019487945091830191611a1d565b915050611a0b94506020925060ff191682840152151560051b8201015f806119fd565b60609060031901126101d3576001600160a01b039060043582811681036101d3579160243590811681036101d3579060443590565b805482101561099d575f5260205f2001905f90565b6001600160401b0381116109b157601f01601f191660200190565b929192611ae182611aba565b91611aef60405193846119ae565b8294818452818301116101d3578281602093845f960137010152565b9080601f830112156101d357816020611b2693359101611ad5565b90565b602090816040818301928281528551809452019301915f5b828110611b4f575050505090565b835185529381019392810192600101611b41565b6006546001600160a01b03163303611b7757565b60405163118cdaa760e01b8152336004820152602490fd5b6001600160a01b0391821692909183156113a8575f92828452826020956002875260409684888820541696879133151580611c7c575b509060027fddf252ad1be2c89b69c2b068fc378daa952ba7f163c4a11628f55a4df523b3ef9284611c4b575b858352600381528b8320805460010190558683525289812080546001600160a01b0319168517905580a41692838303611c2a5750505050565b6064945051926364283d7b60e01b8452600484015260248301526044820152fd5b5f87815260046020526040902080546001600160a01b0319169055848352600381528b832080545f19019055611bf1565b91939450915080611cd1575b15611c985785929187915f611bc5565b878688611cb5576024915190637e27328960e01b82526004820152fd5b604491519063177e802f60e01b82523360048301526024820152fd5b503387148015611cf6575b80611c885750858252600481523385898420541614611c88565b5086825260058152878220338352815260ff8883205416611cdc565b929092611d20838583611b8f565b833b611d2d575b50505050565b604051630a85bd0160e11b8082523360048301526001600160a01b0392831660248301526044820194909452608060648201529493169260209290918590611d799060848301906118d5565b039483815f978189895af1869181611e21575b50611dec575050503d5f14611de3573d611da581611aba565b90611db360405192836119ae565b81528093823d92013e5b82519283611dde57604051633250574960e11b815260048101849052602490fd5b019050fd5b60609250611dbd565b919450915063ffffffff60e01b1603611e0957505f808080611d27565b60249060405190633250574960e11b82526004820152fd5b9091508481813d8311611e5e575b611e3981836119ae565b81010312611e5a57516001600160e01b031981168103611e5a57905f611d8c565b8680fd5b503d611e2f565b5f818152600260205260409020546001600160a01b0316908115611e87575090565b60249060405190637e27328960e01b82526004820152fd5b5f198114611ead5760010190565b634e487b7160e01b5f52601160045260245ffdfea264697066735822122007c81be0264ea9e7bb279aad263a4b8de49f92ff218ae3bdb39d74e8f3e0fd2664736f6c63430008140033",
  "immutableReferences": {},
  "source": "// SPDX-License-Identifier: MIT\npragma solidity >=0.4.22 <0.9.0;\n\nimport \"@openzeppelin/contracts/token/ERC721/ERC721.sol\";\nimport \"@openzeppelin/contracts/access/Ownable.sol\";\n\ncontract EventManager is ERC721, Ownable {\n    struct Event {\n        uint256 id;\n        address organizer;\n        string title;\n        string date;\n        string venue;\n        string description;\n        string category;\n        string image;\n        uint256 ticketPrice;\n        uint256 totalTickets;\n        uint256 ticketsSold;\n        bool published;\n        bool ended;\n    }\n\n    uint256 public nextEventId;\n    uint256 public nextTicketId;\n\n    mapping(uint256 => Event) public events;\n\n    uint256[] public allEvents;\n    mapping(address => uint256[]) public organizerEvents;\n    mapping(address => uint256[]) public eventTickets;\n\n    mapping(uint256 => uint256) public ticketToEvent;\n\n    constructor() ERC721(\"EventTicket\", \"ETICKET\") Ownable(msg.sender) {\n        // Initialization if needed\n    }\n\n    function createEvent(\n        string memory title,\n        string memory date,\n        string memory venue,\n        string memory description,\n        string memory category,\n        string memory image,\n        uint256 ticketPrice,\n        uint256 totalTickets\n    ) external {\n        uint256 eventId = nextEventId++;\n\n        events[eventId] = Event({\n            id: eventId,\n            organizer: msg.sender,\n            title: title,\n            date: date,\n            venue: venue,\n            description: description,\n            category: category,\n            image: image,\n            ticketPrice: ticketPrice,\n            totalTickets: totalTickets,\n            ticketsSold: 0,\n            published: false,\n            ended: false\n        });\n\n        organizerEvents[msg.sender].push(eventId);\n        allEvents.push(eventId);\n    }\n\n    function getOrganizerEvents(\n        address organizer\n    ) external view returns (uint256[] memory) {\n        return organizerEvents[organizer];\n    }\n    function getAllEvents() external view returns (uint256[] memory) {\n        return allEvents;\n    }\n\n    function getEvent(uint256 eventId) external view returns (Event memory) {\n        return events[eventId];\n    }\n\n    function buyTicket(uint256 eventId) external payable {\n        Event storage e = events[eventId];\n        require(e.id == eventId, \"Event does not exist\");\n        require(!e.ended, \"Event ended\");\n        require(e.ticketsSold < e.totalTickets, \"Sold out\");\n        require(msg.value >= e.ticketPrice, \"Not enough ETH sent\");\n\n        // Mint NFT ticket\n        uint256 ticketId = nextTicketId++;\n        _mint(msg.sender, ticketId);\n        ticketToEvent[ticketId] = eventId;\n\n        e.ticketsSold++;\n    }\n}\n",
  "sourcePath": "/Users/thilan/web-dev/prestiqx/smart-contract/contracts/EventManager.sol",
  "compiler": {
    "name": "solc",
    "version": "0.8.20+commit.a1b79de6.Emscripten.clang"
  },
  "schemaVersion": "3.4.16",
  "updatedAt": "2026-01-15T12:38:57.298Z",
  "devdoc": {
    "errors": {
      "ERC721IncorrectOwner(address,uint256,address)": [
        {
          "details": "Indicates an error related to the ownership over a particular token. Used in transfers.",
          "params": {
            "owner": "Address of the current owner of a token.",
            "sender": "Address whose tokens are being transferred.",
            "tokenId": "Identifier number of a token."
          }
        }
      ],
      "ERC721InsufficientApproval(address,uint256)": [
        {
          "details": "Indicates a failure with the `operator`s approval. Used in transfers.",
          "params": {
            "operator": "Address that may be allowed to operate on tokens without being their owner.",
            "tokenId": "Identifier number of a token."
          }
        }
      ],
      "ERC721InvalidApprover(address)": [
        {
          "details": "Indicates a failure with the `approver` of a token to be approved. Used in approvals.",
          "params": {
            "approver": "Address initiating an approval operation."
          }
        }
      ],
      "ERC721InvalidOperator(address)": [
        {
          "details": "Indicates a failure with the `operator` to be approved. Used in approvals.",
          "params": {
            "operator": "Address that may be allowed to operate on tokens without being their owner."
          }
        }
      ],
      "ERC721InvalidOwner(address)": [
        {
          "details": "Indicates that an address can't be an owner. For example, `address(0)` is a forbidden owner in ERC-20. Used in balance queries.",
          "params": {
            "owner": "Address of the current owner of a token."
          }
        }
      ],
      "ERC721InvalidReceiver(address)": [
        {
          "details": "Indicates a failure with the token `receiver`. Used in transfers.",
          "params": {
            "receiver": "Address to which tokens are being transferred."
          }
        }
      ],
      "ERC721InvalidSender(address)": [
        {
          "details": "Indicates a failure with the token `sender`. Used in transfers.",
          "params": {
            "sender": "Address whose tokens are being transferred."
          }
        }
      ],
      "ERC721NonexistentToken(uint256)": [
        {
          "details": "Indicates a `tokenId` whose `owner` is the zero address.",
          "params": {
            "tokenId": "Identifier number of a token."
          }
        }
      ],
      "OwnableInvalidOwner(address)": [
        {
          "details": "The owner is not a valid owner account. (eg. `address(0)`)"
        }
      ],
      "OwnableUnauthorizedAccount(address)": [
        {
          "details": "The caller account is not authorized to perform an operation."
        }
      ]
    },
    "events": {
      "Approval(address,address,uint256)": {
        "details": "Emitted when `owner` enables `approved` to manage the `tokenId` token."
      },
      "ApprovalForAll(address,address,bool)": {
        "details": "Emitted when `owner` enables or disables (`approved`) `operator` to manage all of its assets."
      },
      "Transfer(address,address,uint256)": {
        "details": "Emitted when `tokenId` token is transferred from `from` to `to`."
      }
    },
    "kind": "dev",
    "methods": {
      "approve(address,uint256)": {
        "details": "Gives permission to `to` to transfer `tokenId` token to another account. The approval is cleared when the token is transferred. Only a single account can be approved at a time, so approving the zero address clears previous approvals. Requirements: - The caller must own the token or be an approved operator. - `tokenId` must exist. Emits an {Approval} event."
      },
      "balanceOf(address)": {
        "details": "Returns the number of tokens in ``owner``'s account."
      },
      "getApproved(uint256)": {
        "details": "Returns the account approved for `tokenId` token. Requirements: - `tokenId` must exist."
      },
      "isApprovedForAll(address,address)": {
        "details": "Returns if the `operator` is allowed to manage all of the assets of `owner`. See {setApprovalForAll}"
      },
      "name()": {
        "details": "Returns the token collection name."
      },
      "owner()": {
        "details": "Returns the address of the current owner."
      },
      "ownerOf(uint256)": {
        "details": "Returns the owner of the `tokenId` token. Requirements: - `tokenId` must exist."
      },
      "renounceOwnership()": {
        "details": "Leaves the contract without owner. It will not be possible to call `onlyOwner` functions. Can only be called by the current owner. NOTE: Renouncing ownership will leave the contract without an owner, thereby disabling any functionality that is only available to the owner."
      },
      "safeTransferFrom(address,address,uint256)": {
        "details": "Safely transfers `tokenId` token from `from` to `to`, checking first that contract recipients are aware of the ERC-721 protocol to prevent tokens from being forever locked. Requirements: - `from` cannot be the zero address. - `to` cannot be the zero address. - `tokenId` token must exist and be owned by `from`. - If the caller is not `from`, it must have been allowed to move this token by either {approve} or   {setApprovalForAll}. - If `to` refers to a smart contract, it must implement {IERC721Receiver-onERC721Received}, which is called upon   a safe transfer. Emits a {Transfer} event."
      },
      "safeTransferFrom(address,address,uint256,bytes)": {
        "details": "Safely transfers `tokenId` token from `from` to `to`. Requirements: - `from` cannot be the zero address. - `to` cannot be the zero address. - `tokenId` token must exist and be owned by `from`. - If the caller is not `from`, it must be approved to move this token by either {approve} or {setApprovalForAll}. - If `to` refers to a smart contract, it must implement {IERC721Receiver-onERC721Received}, which is called upon   a safe transfer. Emits a {Transfer} event."
      },
      "setApprovalForAll(address,bool)": {
        "details": "Approve or remove `operator` as an operator for the caller. Operators can call {transferFrom} or {safeTransferFrom} for any token owned by the caller. Requirements: - The `operator` cannot be the address zero. Emits an {ApprovalForAll} event."
      },
      "supportsInterface(bytes4)": {
        "details": "Returns true if this contract implements the interface defined by `interfaceId`. See the corresponding https://eips.ethereum.org/EIPS/eip-165#how-interfaces-are-identified[ERC section] to learn more about how these ids are created. This function call must use less than 30 000 gas."
      },
      "symbol()": {
        "details": "Returns the token collection symbol."
      },
      "tokenURI(uint256)": {
        "details": "Returns the Uniform Resource Identifier (URI) for `tokenId` token."
      },
      "transferFrom(address,address,uint256)": {
        "details": "Transfers `tokenId` token from `from` to `to`. WARNING: Note that the caller is responsible to confirm that the recipient is capable of receiving ERC-721 or else they may be permanently lost. Usage of {safeTransferFrom} prevents loss, though the caller must understand this adds an external call which potentially creates a reentrancy vulnerability. Requirements: - `from` cannot be the zero address. - `to` cannot be the zero address. - `tokenId` token must be owned by `from`. - If the caller is not `from`, it must be approved to move this token by either {approve} or {setApprovalForAll}. Emits a {Transfer} event."
      },
      "transferOwnership(address)": {
        "details": "Transfers ownership of the contract to a new account (`newOwner`). Can only be called by the current owner."
      }
    },
    "version": 1
  },
  "userdoc": {
    "kind": "user",
    "methods": {},
    "version": 1
  }
}