{
  "contractName": "EventManager",
  "abi": [
    {
      "inputs": [
        {
          "internalType": "address",
          "name": "_ticketNFT",
          "type": "address"
        }
      ],
      "stateMutability": "nonpayable",
      "type": "constructor"
    },
    {
      "anonymous": false,
      "inputs": [
        {
          "indexed": true,
          "internalType": "address",
          "name": "previousOwner",
          "type": "address"
        },
        {
          "indexed": true,
          "internalType": "address",
          "name": "newOwner",
          "type": "address"
        }
      ],
      "name": "OwnershipTransferred",
      "type": "event"
    },
    {
      "inputs": [
        {
          "internalType": "uint256",
          "name": "",
          "type": "uint256"
        }
      ],
      "name": "allEvents",
      "outputs": [
        {
          "internalType": "uint256",
          "name": "",
          "type": "uint256"
        }
      ],
      "stateMutability": "view",
      "type": "function",
      "constant": true
    },
    {
      "inputs": [
        {
          "internalType": "uint256",
          "name": "",
          "type": "uint256"
        },
        {
          "internalType": "uint256",
          "name": "",
          "type": "uint256"
        }
      ],
      "name": "eventTickets",
      "outputs": [
        {
          "internalType": "uint256",
          "name": "",
          "type": "uint256"
        }
      ],
      "stateMutability": "view",
      "type": "function",
      "constant": true
    },
    {
      "inputs": [
        {
          "internalType": "uint256",
          "name": "",
          "type": "uint256"
        }
      ],
      "name": "events",
      "outputs": [
        {
          "internalType": "uint256",
          "name": "id",
          "type": "uint256"
        },
        {
          "internalType": "address",
          "name": "organizer",
          "type": "address"
        },
        {
          "internalType": "string",
          "name": "title",
          "type": "string"
        },
        {
          "internalType": "string",
          "name": "date",
          "type": "string"
        },
        {
          "internalType": "string",
          "name": "venue",
          "type": "string"
        },
        {
          "internalType": "string",
          "name": "description",
          "type": "string"
        },
        {
          "internalType": "string",
          "name": "category",
          "type": "string"
        },
        {
          "internalType": "string",
          "name": "image",
          "type": "string"
        },
        {
          "internalType": "uint256",
          "name": "ticketPrice",
          "type": "uint256"
        },
        {
          "internalType": "uint256",
          "name": "totalTickets",
          "type": "uint256"
        },
        {
          "internalType": "uint256",
          "name": "ticketsSold",
          "type": "uint256"
        },
        {
          "internalType": "bool",
          "name": "published",
          "type": "bool"
        },
        {
          "internalType": "bool",
          "name": "ended",
          "type": "bool"
        }
      ],
      "stateMutability": "view",
      "type": "function",
      "constant": true
    },
    {
      "inputs": [],
      "name": "nextEventId",
      "outputs": [
        {
          "internalType": "uint256",
          "name": "",
          "type": "uint256"
        }
      ],
      "stateMutability": "view",
      "type": "function",
      "constant": true
    },
    {
      "inputs": [
        {
          "internalType": "address",
          "name": "",
          "type": "address"
        },
        {
          "internalType": "uint256",
          "name": "",
          "type": "uint256"
        }
      ],
      "name": "organizerEvents",
      "outputs": [
        {
          "internalType": "uint256",
          "name": "",
          "type": "uint256"
        }
      ],
      "stateMutability": "view",
      "type": "function",
      "constant": true
    },
    {
      "inputs": [],
      "name": "owner",
      "outputs": [
        {
          "internalType": "address",
          "name": "",
          "type": "address"
        }
      ],
      "stateMutability": "view",
      "type": "function",
      "constant": true
    },
    {
      "inputs": [],
      "name": "renounceOwnership",
      "outputs": [],
      "stateMutability": "nonpayable",
      "type": "function"
    },
    {
      "inputs": [],
      "name": "ticketNFT",
      "outputs": [
        {
          "internalType": "contract TicketNFT",
          "name": "",
          "type": "address"
        }
      ],
      "stateMutability": "view",
      "type": "function",
      "constant": true
    },
    {
      "inputs": [
        {
          "internalType": "uint256",
          "name": "",
          "type": "uint256"
        }
      ],
      "name": "ticketToEvent",
      "outputs": [
        {
          "internalType": "uint256",
          "name": "",
          "type": "uint256"
        }
      ],
      "stateMutability": "view",
      "type": "function",
      "constant": true
    },
    {
      "inputs": [
        {
          "internalType": "address",
          "name": "newOwner",
          "type": "address"
        }
      ],
      "name": "transferOwnership",
      "outputs": [],
      "stateMutability": "nonpayable",
      "type": "function"
    },
    {
      "inputs": [
        {
          "internalType": "string",
          "name": "title",
          "type": "string"
        },
        {
          "internalType": "string",
          "name": "date",
          "type": "string"
        },
        {
          "internalType": "string",
          "name": "venue",
          "type": "string"
        },
        {
          "internalType": "string",
          "name": "description",
          "type": "string"
        },
        {
          "internalType": "string",
          "name": "category",
          "type": "string"
        },
        {
          "internalType": "string",
          "name": "image",
          "type": "string"
        },
        {
          "internalType": "uint256",
          "name": "ticketPrice",
          "type": "uint256"
        },
        {
          "internalType": "uint256",
          "name": "totalTickets",
          "type": "uint256"
        }
      ],
      "name": "createEvent",
      "outputs": [],
      "stateMutability": "nonpayable",
      "type": "function"
    },
    {
      "inputs": [
        {
          "internalType": "uint256",
          "name": "eventId",
          "type": "uint256"
        },
        {
          "internalType": "string",
          "name": "tokenURI",
          "type": "string"
        }
      ],
      "name": "buyTicket",
      "outputs": [],
      "stateMutability": "payable",
      "type": "function",
      "payable": true
    },
    {
      "inputs": [
        {
          "internalType": "address",
          "name": "organizer",
          "type": "address"
        }
      ],
      "name": "getOrganizerEvents",
      "outputs": [
        {
          "internalType": "uint256[]",
          "name": "",
          "type": "uint256[]"
        }
      ],
      "stateMutability": "view",
      "type": "function",
      "constant": true
    },
    {
      "inputs": [],
      "name": "getAllEvents",
      "outputs": [
        {
          "internalType": "uint256[]",
          "name": "",
          "type": "uint256[]"
        }
      ],
      "stateMutability": "view",
      "type": "function",
      "constant": true
    },
    {
      "inputs": [
        {
          "internalType": "uint256",
          "name": "eventId",
          "type": "uint256"
        }
      ],
      "name": "getEvent",
      "outputs": [
        {
          "components": [
            {
              "internalType": "uint256",
              "name": "id",
              "type": "uint256"
            },
            {
              "internalType": "address",
              "name": "organizer",
              "type": "address"
            },
            {
              "internalType": "string",
              "name": "title",
              "type": "string"
            },
            {
              "internalType": "string",
              "name": "date",
              "type": "string"
            },
            {
              "internalType": "string",
              "name": "venue",
              "type": "string"
            },
            {
              "internalType": "string",
              "name": "description",
              "type": "string"
            },
            {
              "internalType": "string",
              "name": "category",
              "type": "string"
            },
            {
              "internalType": "string",
              "name": "image",
              "type": "string"
            },
            {
              "internalType": "uint256",
              "name": "ticketPrice",
              "type": "uint256"
            },
            {
              "internalType": "uint256",
              "name": "totalTickets",
              "type": "uint256"
            },
            {
              "internalType": "uint256",
              "name": "ticketsSold",
              "type": "uint256"
            },
            {
              "internalType": "bool",
              "name": "published",
              "type": "bool"
            },
            {
              "internalType": "bool",
              "name": "ended",
              "type": "bool"
            }
          ],
          "internalType": "struct EventManager.Event",
          "name": "",
          "type": "tuple"
        }
      ],
      "stateMutability": "view",
      "type": "function",
      "constant": true
    },
    {
      "inputs": [],
      "name": "withdraw",
      "outputs": [],
      "stateMutability": "nonpayable",
      "type": "function"
    },
    {
      "inputs": [
        {
          "internalType": "uint256",
          "name": "eventId",
          "type": "uint256"
        }
      ],
      "name": "endEvent",
      "outputs": [],
      "stateMutability": "nonpayable",
      "type": "function"
    }
  ],
  "bytecode": "0x6080346100a857601f6118c838819003918201601f19168301916001600160401b038311848410176100ac578084926020946040528339810103126100a857516001600160a01b0390818116908190036100a8575f5460018060a01b03199033828216175f55604051933391167f8be0079c531659141344cd1fd0a4f28419497f9722a3daafe3b4186f6b6457e05f80a360018055600254161760025561180790816100c18239f35b5f80fd5b634e487b7160e01b5f52604160045260245ffdfe60806040526004361015610011575f80fd5b5f803560e01c80630b791430146113b5578063330a347b1461137b5780633bec5cff1461132b5780633ccfd60b146112dc5780636d1884e01461109d578063715018a614611043578063779cea77146110095780638da5cb5b14610fe25780639afb93cb14610d6c5780639f1e7ca6146103635780639f9d903a14610345578063b393391b1461031c578063c27a500d146102a6578063e4aa47e314610250578063f2fde38b14610188578063f6ac04da1461015e5763ff9f5970146100d5575f80fd5b3461015b57602080600319360112610157576001600160a01b036100f761170e565b1682526006815260408220916040518092808554928381520194835280832092905b8282106101405761013c8561013081890382611556565b604051918291826116d4565b0390f35b835486529485019460019384019390910190610119565b5080fd5b80fd5b503461015b57602036600319011261015b5760406020916004358152600883522054604051908152f35b503461015b57602036600319011261015b576101a261170e565b6101aa611724565b6001600160a01b039081169081156101fc575f54826bffffffffffffffffffffffff60a01b8216175f55167f8be0079c531659141344cd1fd0a4f28419497f9722a3daafe3b4186f6b6457e05f80a380f35b60405162461bcd60e51b815260206004820152602660248201527f4f776e61626c653a206e6577206f776e657220697320746865207a65726f206160448201526564647265737360d01b6064820152608490fd5b503461015b57604036600319011261015b5761026a61170e565b6001600160a01b031681526006602052604081208054602435929083101561015b5760206102988484611656565b90546040519160031b1c8152f35b503461015b578060031936011261015b57604051600580548083529083526020808301937f036b6384b5eca791c62761152d0c79bb0604c104a5fb6f4eb0703f3154bb3db092915b8282106103055761013c8561013081890382611556565b8354865294850194600193840193909101906102ee565b503461015b578060031936011261015b576002546040516001600160a01b039091168152602090f35b503461015b578060031936011261015b576020600354604051908152f35b503461015b5761010036600319011261015b576004356001600160401b0381116101575761039590369060040161167f565b60249081356001600160401b038111610d68576103b690369060040161167f565b906044356001600160401b038111610d64576103d690369060040161167f565b6064356001600160401b038111610d60576103f590369060040161167f565b6084356001600160401b038111610d5c5761041490369060040161167f565b9060a4356001600160401b038111610d585761043490369060040161167f565b9261043d611724565b6003549561044a8761177b565b6003556040519561045a87611526565b87875233602088015260408701526060860152608085015260a084015260c083015260e082015260c43561010082015260e4356101208201528361014082015283610160820152836101808201528184526004602052604084208151815560018060a01b0360208301511660018201906bffffffffffffffffffffffff60a01b82541617905560408201518051906001600160401b03821161095857819061050560028501546114ee565b601f8111610d08575b50602090601f8311600114610c9a578892610c8f575b50508160011b915f199060031b1c19161760028201555b60608201518051906001600160401b03821161095857819061056060038501546114ee565b601f8111610c3f575b50602090601f8311600114610bd1578892610bc6575b50508160011b915f199060031b1c19161760038201555b60808201518051906001600160401b0382116109585781906105bb60048501546114ee565b601f8111610b76575b50602090601f8311600114610b08578892610afd575b50508160011b915f199060031b1c19161760048201555b60a08201518051906001600160401b03821161095857819061061660058501546114ee565b601f8111610aad575b50602090601f8311600114610a3f578892610a34575b50508160011b915f199060031b1c19161760058201555b60c08201518051906001600160401b03821161095857819061067160068501546114ee565b601f81116109e4575b50602090601f831160011461097657889261096b575b50508160011b915f199060031b1c19161760068201555b60e08201518051906001600160401b038211610958576106ca60078401546114ee565b601f8111610914575b50602090601f83116001146108a557600b93929188918361089a575b50508160011b915f199060031b1c19161760078201555b61010083015160088201556101208301516009820155610140830151600a820155019061016081015115159060ff61ff006101808554930151151560081b1692169061ffff1916171790553383526006602052610766816040852061179d565b600554600160401b81101561088757600181018060055581101561087457819060055f527f036b6384b5eca791c62761152d0c79bb0604c104a5fb6f4eb0703f3154bb3db0015582805b60e43581106107bd575080f35b602060018060a01b03600254166064604051809581936314e2210b60e21b835230600484015260408a8401528160448401525af18015610869578590610831575b61082a92508386526007602052610818816040882061179d565b8552600860205282604086205561177b565b83906107b0565b506020823d602011610861575b8161084b60209383611556565b8101031261085d5761082a91516107fe565b5f80fd5b3d915061083e565b6040513d87823e3d90fd5b82634e487b7160e01b5f5260326004525ffd5b82634e487b7160e01b5f5260416004525ffd5b015190505f806106ef565b906007840188526020882091885b601f19851681106108fc5750918391600193600b9695601f198116106108e4575b505050811b016007820155610706565b01515f1960f88460031b161c191690555f80806108d4565b919260206001819286850151815501940192016108b3565b60078401885260208820601f840160051c810160208510610951575b601f830160051c820181106109465750506106d3565b5f8155600101610930565b5080610930565b634e487b7160e01b875260416004528587fd5b015190505f80610690565b9250600684018852602088209088935b601f19841685106109c9576001945083601f198116106109b1575b505050811b0160068201556106a7565b01515f1960f88460031b161c191690555f80806109a1565b81810151835560209485019460019093019290910190610986565b90915060068401885260208820601f840160051c810160208510610a2d575b90849392915b601f830160051c82018110610a1f57505061067a565b5f8155859450600101610a09565b5080610a03565b015190505f80610635565b9250600584018852602088209088935b601f1984168510610a92576001945083601f19811610610a7a575b505050811b01600582015561064c565b01515f1960f88460031b161c191690555f8080610a6a565b81810151835560209485019460019093019290910190610a4f565b90915060058401885260208820601f840160051c810160208510610af6575b90849392915b601f830160051c82018110610ae857505061061f565b5f8155859450600101610ad2565b5080610acc565b015190505f806105da565b9250600484018852602088209088935b601f1984168510610b5b576001945083601f19811610610b43575b505050811b0160048201556105f1565b01515f1960f88460031b161c191690555f8080610b33565b81810151835560209485019460019093019290910190610b18565b90915060048401885260208820601f840160051c810160208510610bbf575b90849392915b601f830160051c82018110610bb15750506105c4565b5f8155859450600101610b9b565b5080610b95565b015190505f8061057f565b9250600384018852602088209088935b601f1984168510610c24576001945083601f19811610610c0c575b505050811b016003820155610596565b01515f1960f88460031b161c191690555f8080610bfc565b81810151835560209485019460019093019290910190610be1565b90915060038401885260208820601f840160051c810160208510610c88575b90849392915b601f830160051c82018110610c7a575050610569565b5f8155859450600101610c64565b5080610c5e565b015190505f80610524565b9250600284018852602088209088935b601f1984168510610ced576001945083601f19811610610cd5575b505050811b01600282015561053b565b01515f1960f88460031b161c191690555f8080610cc5565b81810151835560209485019460019093019290910190610caa565b90915060028401885260208820601f840160051c810160208510610d51575b90849392915b601f830160051c82018110610d4357505061050e565b5f8155859450600101610d2d565b5080610d27565b8780fd5b8680fd5b8580fd5b8480fd5b8380fd5b50604036600319011261015b57600435906001600160401b0360248035828111610d6857610d9e90369060040161167f565b91600260015414610f9e5760026001558484526020600481526040852060ff600b82015460081c16610f6c57600a8101968754916009810154831015610f3d57600801543403610f095790610dfc9187526007835260408720611656565b94905491610e3b8160018060a01b0393846002541660408b8a8251968795869485936314e2210b60e21b85523360048601528401526044830190611618565b03925af18015610efe57610ed5575b50506002541693843b15610d60579060648692836040519788948593632142170760e11b8552306004860152338a86015260031b1c60448401525af18015610eca57610ea6575b8385610e9d815461177b565b90556001805580f35b8211610eb857506040525f8080610e91565b634e487b7160e01b8352604160045282fd5b6040513d86823e3d90fd5b813d8311610ef7575b610ee88183611556565b81010312610d60575f80610e4a565b503d610ede565b6040513d8a823e3d90fd5b60405162461bcd60e51b815260048101849052600d818701526c092dcc6dee4e4cac6e8408aa89609b1b6044820152606490fd5b60405162461bcd60e51b8152600481018590526008818801526714dbdb19081bdd5d60c21b6044820152606490fd5b60405162461bcd60e51b815260048101839052600b818601526a115d995b9d08195b99195960aa1b6044820152606490fd5b60405162461bcd60e51b815260206004820152601f818401527f5265656e7472616e637947756172643a207265656e7472616e742063616c6c006044820152606490fd5b503461015b578060031936011261015b57546040516001600160a01b039091168152602090f35b503461015b57604036600319011261015b5760243590600435815260076020526040812090815483101561015b5760206102988484611656565b503461015b578060031936011261015b5761105c611724565b80546001600160a01b03198116825581906001600160a01b03167f8be0079c531659141344cd1fd0a4f28419497f9722a3daafe3b4186f6b6457e08280a380f35b503461015b57602036600319011261015b578060409161018083516110c181611526565b82815282602082015260608582015260608082015260606080820152606060a0820152606060c0820152606060e0820152826101008201528261012082015282610140820152826101608201520152600435815260046020522060ff600b6040519261112c84611526565b8054845260018101546001600160a01b0316602085015261114f60028201611577565b604085015261116060038201611577565b606085015261117160048201611577565b608085015261118260058201611577565b60a085015261119360068201611577565b60c08501526111a460078201611577565b60e085015260088101546101008501526009810154610120850152600a8101546101408501520154818116151561016084015260081c1615156101808201526040518091602082528051602083015260018060a01b03602082015116604083015261018061129d61122660408401516101a060608701526101c0860190611618565b61128761127361125f61124b606088015194601f1995868b83030160808c0152611618565b6080880151858a83030160a08b0152611618565b60a0870151848983030160c08a0152611618565b60c0860151838883030160e0890152611618565b9060e08501519086830301610100870152611618565b91610100810151610120850152610120810151610140850152610140810151610160850152610160810151151582850152015115156101a08301520390f35b503461015b578060031936011261015b576112f5611724565b8080808060018060a01b038154164790828215611322575bf1156113165780f35b604051903d90823e3d90fd5b506108fc61130d565b503461015b57602036600319011261015b57600435600554811015610157576005602092527f036b6384b5eca791c62761152d0c79bb0604c104a5fb6f4eb0703f3154bb3db00154604051908152f35b503461015b57602036600319011261015b57611395611724565b60048035825260205260408120600b01805461ff00191661010017905580f35b503461015b57602036600319011261015b5760048035825260205260409020805460018201546001600160a01b0316916113f160028201611577565b6113fd60038301611577565b9161140a60048201611577565b9261141760058301611577565b61142360068401611577565b61142f60078501611577565b91600885015496600986015494600a87015496600b0154976040519b8c9b8c5260208c01526101a08060408d01528b0161146891611618565b8a810360608c015261147991611618565b89810360808b015261148a91611618565b88810360a08a015261149b91611618565b87810360c08901526114ac91611618565b86810360e08801526114bd91611618565b9361010086015261012085015261014084015260ff8116151561016084015260081c60ff1615156101808301520390f35b90600182811c9216801561151c575b602083101461150857565b634e487b7160e01b5f52602260045260245ffd5b91607f16916114fd565b6101a081019081106001600160401b0382111761154257604052565b634e487b7160e01b5f52604160045260245ffd5b90601f801991011681019081106001600160401b0382111761154257604052565b9060405191825f82549261158a846114ee565b9081845260019485811690815f146115f557506001146115b5575b50506115b392500383611556565b565b909391505f52602090815f20935f915b8183106115dd5750506115b393508201015f806115a5565b855488840185015294850194879450918301916115c5565b9150506115b394506020925060ff191682840152151560051b8201015f806115a5565b91908251928382525f5b848110611642575050825f602080949584010152601f8019910116010190565b602081830181015184830182015201611622565b805482101561166b575f5260205f2001905f90565b634e487b7160e01b5f52603260045260245ffd5b81601f8201121561085d578035906001600160401b03821161154257604051926116b3601f8401601f191660200185611556565b8284526020838301011161085d57815f926020809301838601378301015290565b602090816040818301928281528551809452019301915f5b8281106116fa575050505090565b8351855293810193928101926001016116ec565b600435906001600160a01b038216820361085d57565b5f546001600160a01b0316330361173757565b606460405162461bcd60e51b815260206004820152602060248201527f4f776e61626c653a2063616c6c6572206973206e6f7420746865206f776e65726044820152fd5b5f1981146117895760010190565b634e487b7160e01b5f52601160045260245ffd5b8054600160401b811015611542576117ba91600182018155611656565b819291549060031b91821b915f19901b191617905556fea26469706673582212200b01b8f787f8498086b5b10aa4139ace4f1cbf6d0da94c1257e8d8a870ada1f164736f6c63430008140033",
  "immutableReferences": {},
  "source": "// SPDX-License-Identifier: MIT\npragma solidity ^0.8.20;\n\nimport \"@openzeppelin/contracts/access/Ownable.sol\";\nimport \"@openzeppelin/contracts/security/ReentrancyGuard.sol\";\nimport \"./TicketNFT.sol\";\n\ncontract EventManager is Ownable, ReentrancyGuard {\n    TicketNFT public ticketNFT;\n    uint256 public nextEventId;\n\n    struct Event {\n        uint256 id;\n        address organizer;\n        string title;\n        string date;\n        string venue;\n        string description;\n        string category;\n        string image;\n        uint256 ticketPrice;\n        uint256 totalTickets;\n        uint256 ticketsSold;\n        bool published;\n        bool ended;\n    }\n\n    mapping(uint256 => Event) public events;\n\n    uint256[] public allEvents;\n    mapping(address => uint256[]) public organizerEvents;\n\n    mapping(uint256 => uint256[]) public eventTickets; // ticket IDs per event\n    mapping(uint256 => uint256) public ticketToEvent; // tokenId => eventId\n\n    constructor(address _ticketNFT) {\n        ticketNFT = TicketNFT(_ticketNFT);\n    }\n\n    // ------------------------\n    // Create Event\n    // ------------------------\n    function createEvent(\n        string memory title,\n        string memory date,\n        string memory venue,\n        string memory description,\n        string memory category,\n        string memory image,\n        uint256 ticketPrice,\n        uint256 totalTickets\n    ) external onlyOwner {\n        uint256 eventId = nextEventId++;\n        events[eventId] = Event({\n            id: eventId,\n            organizer: msg.sender,\n            title: title,\n            date: date,\n            venue: venue,\n            description: description,\n            category: category,\n            image: image,\n            ticketPrice: ticketPrice,\n            totalTickets: totalTickets,\n            ticketsSold: 0,\n            published: false,\n            ended: false\n        });\n\n        organizerEvents[msg.sender].push(eventId);\n        allEvents.push(eventId);\n\n        // Mint NFT tickets to EventManager contract\n        for (uint256 i = 0; i < totalTickets; i++) {\n            uint256 tokenId = ticketNFT.mintTicket(address(this), \"\");\n            eventTickets[eventId].push(tokenId);\n            ticketToEvent[tokenId] = eventId;\n        }\n    }\n\n    // ------------------------\n    // Buy Ticket\n    // ------------------------\n    function buyTicket(\n        uint256 eventId,\n        string memory tokenURI\n    ) external payable nonReentrant {\n        Event storage e = events[eventId];\n        require(!e.ended, \"Event ended\");\n        require(e.ticketsSold < e.totalTickets, \"Sold out\");\n        require(msg.value == e.ticketPrice, \"Incorrect ETH\");\n\n        // Transfer next available ticket to buyer\n        uint256 ticketId = eventTickets[eventId][e.ticketsSold];\n        ticketNFT.mintTicket(msg.sender, tokenURI); // optional: update metadata\n        ticketNFT.safeTransferFrom(address(this), msg.sender, ticketId);\n\n        e.ticketsSold++;\n    }\n\n    function getOrganizerEvents(\n        address organizer\n    ) external view returns (uint256[] memory) {\n        return organizerEvents[organizer];\n    }\n    function getAllEvents() external view returns (uint256[] memory) {\n        return allEvents;\n    }\n\n    function getEvent(uint256 eventId) external view returns (Event memory) {\n        return events[eventId];\n    }\n\n    // ------------------------\n    // Admin Functions\n    // ------------------------\n    function withdraw() external onlyOwner {\n        payable(owner()).transfer(address(this).balance);\n    }\n\n    function endEvent(uint256 eventId) external onlyOwner {\n        events[eventId].ended = true;\n    }\n}\n",
  "sourcePath": "/Users/thilan/web-dev/prestiqx/smart-contract/contracts/EventManager.sol",
  "compiler": {
    "name": "solc",
    "version": "0.8.20+commit.a1b79de6.Emscripten.clang"
  },
  "schemaVersion": "3.4.16",
  "updatedAt": "2026-01-15T14:09:51.546Z",
  "networkType": "ethereum",
  "devdoc": {
    "kind": "dev",
    "methods": {
      "owner()": {
        "details": "Returns the address of the current owner."
      },
      "renounceOwnership()": {
        "details": "Leaves the contract without owner. It will not be possible to call `onlyOwner` functions. Can only be called by the current owner. NOTE: Renouncing ownership will leave the contract without an owner, thereby disabling any functionality that is only available to the owner."
      },
      "transferOwnership(address)": {
        "details": "Transfers ownership of the contract to a new account (`newOwner`). Can only be called by the current owner."
      }
    },
    "version": 1
  },
  "userdoc": {
    "kind": "user",
    "methods": {},
    "version": 1
  }
}